
UART_TEST.elf:     file format elf32-littlearm

Sections:
Idx Name          Size      VMA       LMA       File off  Algn
  0 .isr_vector   000001f8  08000000  08000000  00010000  2**0
                  CONTENTS, ALLOC, LOAD, READONLY, DATA
  1 .text         000011f0  080001f8  080001f8  000101f8  2**2
                  CONTENTS, ALLOC, LOAD, READONLY, CODE
  2 .rodata       00000010  080013e8  080013e8  000113e8  2**2
                  CONTENTS, ALLOC, LOAD, READONLY, DATA
  3 .ARM.extab    00000000  080013f8  080013f8  0002000c  2**0
                  CONTENTS
  4 .ARM          00000008  080013f8  080013f8  000113f8  2**2
                  CONTENTS, ALLOC, LOAD, READONLY, DATA
  5 .preinit_array 00000000  08001400  08001400  0002000c  2**0
                  CONTENTS, ALLOC, LOAD, DATA
  6 .init_array   00000004  08001400  08001400  00011400  2**2
                  CONTENTS, ALLOC, LOAD, DATA
  7 .fini_array   00000004  08001404  08001404  00011404  2**2
                  CONTENTS, ALLOC, LOAD, DATA
  8 .data         0000000c  20000000  08001408  00020000  2**2
                  CONTENTS, ALLOC, LOAD, DATA
  9 .bss          00000020  2000000c  08001414  0002000c  2**2
                  ALLOC
 10 ._user_heap_stack 00000604  2000002c  08001414  0002002c  2**0
                  ALLOC
 11 .ARM.attributes 0000002e  00000000  00000000  0002000c  2**0
                  CONTENTS, READONLY
 12 .debug_info   00003f2e  00000000  00000000  0002003a  2**0
                  CONTENTS, READONLY, DEBUGGING, OCTETS
 13 .debug_abbrev 00000e22  00000000  00000000  00023f68  2**0
                  CONTENTS, READONLY, DEBUGGING, OCTETS
 14 .debug_aranges 00000438  00000000  00000000  00024d90  2**3
                  CONTENTS, READONLY, DEBUGGING, OCTETS
 15 .debug_ranges 000003b0  00000000  00000000  000251c8  2**3
                  CONTENTS, READONLY, DEBUGGING, OCTETS
 16 .debug_macro  0002ac65  00000000  00000000  00025578  2**0
                  CONTENTS, READONLY, DEBUGGING, OCTETS
 17 .debug_line   0000492d  00000000  00000000  000501dd  2**0
                  CONTENTS, READONLY, DEBUGGING, OCTETS
 18 .debug_str    00103edd  00000000  00000000  00054b0a  2**0
                  CONTENTS, READONLY, DEBUGGING, OCTETS
 19 .comment      00000050  00000000  00000000  001589e7  2**0
                  CONTENTS, READONLY
 20 .debug_frame  00000f1c  00000000  00000000  00158a38  2**2
                  CONTENTS, READONLY, DEBUGGING, OCTETS

Disassembly of section .text:

080001f8 <__do_global_dtors_aux>:
 80001f8:	b510      	push	{r4, lr}
 80001fa:	4c05      	ldr	r4, [pc, #20]	; (8000210 <__do_global_dtors_aux+0x18>)
 80001fc:	7823      	ldrb	r3, [r4, #0]
 80001fe:	b933      	cbnz	r3, 800020e <__do_global_dtors_aux+0x16>
 8000200:	4b04      	ldr	r3, [pc, #16]	; (8000214 <__do_global_dtors_aux+0x1c>)
 8000202:	b113      	cbz	r3, 800020a <__do_global_dtors_aux+0x12>
 8000204:	4804      	ldr	r0, [pc, #16]	; (8000218 <__do_global_dtors_aux+0x20>)
 8000206:	f3af 8000 	nop.w
 800020a:	2301      	movs	r3, #1
 800020c:	7023      	strb	r3, [r4, #0]
 800020e:	bd10      	pop	{r4, pc}
 8000210:	2000000c 	.word	0x2000000c
 8000214:	00000000 	.word	0x00000000
 8000218:	080013d0 	.word	0x080013d0

0800021c <frame_dummy>:
 800021c:	b508      	push	{r3, lr}
 800021e:	4b03      	ldr	r3, [pc, #12]	; (800022c <frame_dummy+0x10>)
 8000220:	b11b      	cbz	r3, 800022a <frame_dummy+0xe>
 8000222:	4903      	ldr	r1, [pc, #12]	; (8000230 <frame_dummy+0x14>)
 8000224:	4803      	ldr	r0, [pc, #12]	; (8000234 <frame_dummy+0x18>)
 8000226:	f3af 8000 	nop.w
 800022a:	bd08      	pop	{r3, pc}
 800022c:	00000000 	.word	0x00000000
 8000230:	20000010 	.word	0x20000010
 8000234:	080013d0 	.word	0x080013d0

08000238 <__aeabi_uldivmod>:
 8000238:	b953      	cbnz	r3, 8000250 <__aeabi_uldivmod+0x18>
 800023a:	b94a      	cbnz	r2, 8000250 <__aeabi_uldivmod+0x18>
 800023c:	2900      	cmp	r1, #0
 800023e:	bf08      	it	eq
 8000240:	2800      	cmpeq	r0, #0
 8000242:	bf1c      	itt	ne
 8000244:	f04f 31ff 	movne.w	r1, #4294967295
 8000248:	f04f 30ff 	movne.w	r0, #4294967295
 800024c:	f000 b974 	b.w	8000538 <__aeabi_idiv0>
 8000250:	f1ad 0c08 	sub.w	ip, sp, #8
 8000254:	e96d ce04 	strd	ip, lr, [sp, #-16]!
 8000258:	f000 f806 	bl	8000268 <__udivmoddi4>
 800025c:	f8dd e004 	ldr.w	lr, [sp, #4]
 8000260:	e9dd 2302 	ldrd	r2, r3, [sp, #8]
 8000264:	b004      	add	sp, #16
 8000266:	4770      	bx	lr

08000268 <__udivmoddi4>:
 8000268:	e92d 47f0 	stmdb	sp!, {r4, r5, r6, r7, r8, r9, sl, lr}
 800026c:	9d08      	ldr	r5, [sp, #32]
 800026e:	4604      	mov	r4, r0
 8000270:	468e      	mov	lr, r1
 8000272:	2b00      	cmp	r3, #0
 8000274:	d14d      	bne.n	8000312 <__udivmoddi4+0xaa>
 8000276:	428a      	cmp	r2, r1
 8000278:	4694      	mov	ip, r2
 800027a:	d969      	bls.n	8000350 <__udivmoddi4+0xe8>
 800027c:	fab2 f282 	clz	r2, r2
 8000280:	b152      	cbz	r2, 8000298 <__udivmoddi4+0x30>
 8000282:	fa01 f302 	lsl.w	r3, r1, r2
 8000286:	f1c2 0120 	rsb	r1, r2, #32
 800028a:	fa20 f101 	lsr.w	r1, r0, r1
 800028e:	fa0c fc02 	lsl.w	ip, ip, r2
 8000292:	ea41 0e03 	orr.w	lr, r1, r3
 8000296:	4094      	lsls	r4, r2
 8000298:	ea4f 481c 	mov.w	r8, ip, lsr #16
 800029c:	0c21      	lsrs	r1, r4, #16
 800029e:	fbbe f6f8 	udiv	r6, lr, r8
 80002a2:	fa1f f78c 	uxth.w	r7, ip
 80002a6:	fb08 e316 	mls	r3, r8, r6, lr
 80002aa:	ea41 4303 	orr.w	r3, r1, r3, lsl #16
 80002ae:	fb06 f107 	mul.w	r1, r6, r7
 80002b2:	4299      	cmp	r1, r3
 80002b4:	d90a      	bls.n	80002cc <__udivmoddi4+0x64>
 80002b6:	eb1c 0303 	adds.w	r3, ip, r3
 80002ba:	f106 30ff 	add.w	r0, r6, #4294967295
 80002be:	f080 811f 	bcs.w	8000500 <__udivmoddi4+0x298>
 80002c2:	4299      	cmp	r1, r3
 80002c4:	f240 811c 	bls.w	8000500 <__udivmoddi4+0x298>
 80002c8:	3e02      	subs	r6, #2
 80002ca:	4463      	add	r3, ip
 80002cc:	1a5b      	subs	r3, r3, r1
 80002ce:	b2a4      	uxth	r4, r4
 80002d0:	fbb3 f0f8 	udiv	r0, r3, r8
 80002d4:	fb08 3310 	mls	r3, r8, r0, r3
 80002d8:	ea44 4403 	orr.w	r4, r4, r3, lsl #16
 80002dc:	fb00 f707 	mul.w	r7, r0, r7
 80002e0:	42a7      	cmp	r7, r4
 80002e2:	d90a      	bls.n	80002fa <__udivmoddi4+0x92>
 80002e4:	eb1c 0404 	adds.w	r4, ip, r4
 80002e8:	f100 33ff 	add.w	r3, r0, #4294967295
 80002ec:	f080 810a 	bcs.w	8000504 <__udivmoddi4+0x29c>
 80002f0:	42a7      	cmp	r7, r4
 80002f2:	f240 8107 	bls.w	8000504 <__udivmoddi4+0x29c>
 80002f6:	4464      	add	r4, ip
 80002f8:	3802      	subs	r0, #2
 80002fa:	ea40 4006 	orr.w	r0, r0, r6, lsl #16
 80002fe:	1be4      	subs	r4, r4, r7
 8000300:	2600      	movs	r6, #0
 8000302:	b11d      	cbz	r5, 800030c <__udivmoddi4+0xa4>
 8000304:	40d4      	lsrs	r4, r2
 8000306:	2300      	movs	r3, #0
 8000308:	e9c5 4300 	strd	r4, r3, [r5]
 800030c:	4631      	mov	r1, r6
 800030e:	e8bd 87f0 	ldmia.w	sp!, {r4, r5, r6, r7, r8, r9, sl, pc}
 8000312:	428b      	cmp	r3, r1
 8000314:	d909      	bls.n	800032a <__udivmoddi4+0xc2>
 8000316:	2d00      	cmp	r5, #0
 8000318:	f000 80ef 	beq.w	80004fa <__udivmoddi4+0x292>
 800031c:	2600      	movs	r6, #0
 800031e:	e9c5 0100 	strd	r0, r1, [r5]
 8000322:	4630      	mov	r0, r6
 8000324:	4631      	mov	r1, r6
 8000326:	e8bd 87f0 	ldmia.w	sp!, {r4, r5, r6, r7, r8, r9, sl, pc}
 800032a:	fab3 f683 	clz	r6, r3
 800032e:	2e00      	cmp	r6, #0
 8000330:	d14a      	bne.n	80003c8 <__udivmoddi4+0x160>
 8000332:	428b      	cmp	r3, r1
 8000334:	d302      	bcc.n	800033c <__udivmoddi4+0xd4>
 8000336:	4282      	cmp	r2, r0
 8000338:	f200 80f9 	bhi.w	800052e <__udivmoddi4+0x2c6>
 800033c:	1a84      	subs	r4, r0, r2
 800033e:	eb61 0303 	sbc.w	r3, r1, r3
 8000342:	2001      	movs	r0, #1
 8000344:	469e      	mov	lr, r3
 8000346:	2d00      	cmp	r5, #0
 8000348:	d0e0      	beq.n	800030c <__udivmoddi4+0xa4>
 800034a:	e9c5 4e00 	strd	r4, lr, [r5]
 800034e:	e7dd      	b.n	800030c <__udivmoddi4+0xa4>
 8000350:	b902      	cbnz	r2, 8000354 <__udivmoddi4+0xec>
 8000352:	deff      	udf	#255	; 0xff
 8000354:	fab2 f282 	clz	r2, r2
 8000358:	2a00      	cmp	r2, #0
 800035a:	f040 8092 	bne.w	8000482 <__udivmoddi4+0x21a>
 800035e:	eba1 010c 	sub.w	r1, r1, ip
 8000362:	ea4f 471c 	mov.w	r7, ip, lsr #16
 8000366:	fa1f fe8c 	uxth.w	lr, ip
 800036a:	2601      	movs	r6, #1
 800036c:	0c20      	lsrs	r0, r4, #16
 800036e:	fbb1 f3f7 	udiv	r3, r1, r7
 8000372:	fb07 1113 	mls	r1, r7, r3, r1
 8000376:	ea40 4101 	orr.w	r1, r0, r1, lsl #16
 800037a:	fb0e f003 	mul.w	r0, lr, r3
 800037e:	4288      	cmp	r0, r1
 8000380:	d908      	bls.n	8000394 <__udivmoddi4+0x12c>
 8000382:	eb1c 0101 	adds.w	r1, ip, r1
 8000386:	f103 38ff 	add.w	r8, r3, #4294967295
 800038a:	d202      	bcs.n	8000392 <__udivmoddi4+0x12a>
 800038c:	4288      	cmp	r0, r1
 800038e:	f200 80cb 	bhi.w	8000528 <__udivmoddi4+0x2c0>
 8000392:	4643      	mov	r3, r8
 8000394:	1a09      	subs	r1, r1, r0
 8000396:	b2a4      	uxth	r4, r4
 8000398:	fbb1 f0f7 	udiv	r0, r1, r7
 800039c:	fb07 1110 	mls	r1, r7, r0, r1
 80003a0:	ea44 4401 	orr.w	r4, r4, r1, lsl #16
 80003a4:	fb0e fe00 	mul.w	lr, lr, r0
 80003a8:	45a6      	cmp	lr, r4
 80003aa:	d908      	bls.n	80003be <__udivmoddi4+0x156>
 80003ac:	eb1c 0404 	adds.w	r4, ip, r4
 80003b0:	f100 31ff 	add.w	r1, r0, #4294967295
 80003b4:	d202      	bcs.n	80003bc <__udivmoddi4+0x154>
 80003b6:	45a6      	cmp	lr, r4
 80003b8:	f200 80bb 	bhi.w	8000532 <__udivmoddi4+0x2ca>
 80003bc:	4608      	mov	r0, r1
 80003be:	eba4 040e 	sub.w	r4, r4, lr
 80003c2:	ea40 4003 	orr.w	r0, r0, r3, lsl #16
 80003c6:	e79c      	b.n	8000302 <__udivmoddi4+0x9a>
 80003c8:	f1c6 0720 	rsb	r7, r6, #32
 80003cc:	40b3      	lsls	r3, r6
 80003ce:	fa22 fc07 	lsr.w	ip, r2, r7
 80003d2:	ea4c 0c03 	orr.w	ip, ip, r3
 80003d6:	fa20 f407 	lsr.w	r4, r0, r7
 80003da:	fa01 f306 	lsl.w	r3, r1, r6
 80003de:	431c      	orrs	r4, r3
 80003e0:	40f9      	lsrs	r1, r7
 80003e2:	ea4f 491c 	mov.w	r9, ip, lsr #16
 80003e6:	fa00 f306 	lsl.w	r3, r0, r6
 80003ea:	fbb1 f8f9 	udiv	r8, r1, r9
 80003ee:	0c20      	lsrs	r0, r4, #16
 80003f0:	fa1f fe8c 	uxth.w	lr, ip
 80003f4:	fb09 1118 	mls	r1, r9, r8, r1
 80003f8:	ea40 4101 	orr.w	r1, r0, r1, lsl #16
 80003fc:	fb08 f00e 	mul.w	r0, r8, lr
 8000400:	4288      	cmp	r0, r1
 8000402:	fa02 f206 	lsl.w	r2, r2, r6
 8000406:	d90b      	bls.n	8000420 <__udivmoddi4+0x1b8>
 8000408:	eb1c 0101 	adds.w	r1, ip, r1
 800040c:	f108 3aff 	add.w	sl, r8, #4294967295
 8000410:	f080 8088 	bcs.w	8000524 <__udivmoddi4+0x2bc>
 8000414:	4288      	cmp	r0, r1
 8000416:	f240 8085 	bls.w	8000524 <__udivmoddi4+0x2bc>
 800041a:	f1a8 0802 	sub.w	r8, r8, #2
 800041e:	4461      	add	r1, ip
 8000420:	1a09      	subs	r1, r1, r0
 8000422:	b2a4      	uxth	r4, r4
 8000424:	fbb1 f0f9 	udiv	r0, r1, r9
 8000428:	fb09 1110 	mls	r1, r9, r0, r1
 800042c:	ea44 4101 	orr.w	r1, r4, r1, lsl #16
 8000430:	fb00 fe0e 	mul.w	lr, r0, lr
 8000434:	458e      	cmp	lr, r1
 8000436:	d908      	bls.n	800044a <__udivmoddi4+0x1e2>
 8000438:	eb1c 0101 	adds.w	r1, ip, r1
 800043c:	f100 34ff 	add.w	r4, r0, #4294967295
 8000440:	d26c      	bcs.n	800051c <__udivmoddi4+0x2b4>
 8000442:	458e      	cmp	lr, r1
 8000444:	d96a      	bls.n	800051c <__udivmoddi4+0x2b4>
 8000446:	3802      	subs	r0, #2
 8000448:	4461      	add	r1, ip
 800044a:	ea40 4008 	orr.w	r0, r0, r8, lsl #16
 800044e:	fba0 9402 	umull	r9, r4, r0, r2
 8000452:	eba1 010e 	sub.w	r1, r1, lr
 8000456:	42a1      	cmp	r1, r4
 8000458:	46c8      	mov	r8, r9
 800045a:	46a6      	mov	lr, r4
 800045c:	d356      	bcc.n	800050c <__udivmoddi4+0x2a4>
 800045e:	d053      	beq.n	8000508 <__udivmoddi4+0x2a0>
 8000460:	b15d      	cbz	r5, 800047a <__udivmoddi4+0x212>
 8000462:	ebb3 0208 	subs.w	r2, r3, r8
 8000466:	eb61 010e 	sbc.w	r1, r1, lr
 800046a:	fa01 f707 	lsl.w	r7, r1, r7
 800046e:	fa22 f306 	lsr.w	r3, r2, r6
 8000472:	40f1      	lsrs	r1, r6
 8000474:	431f      	orrs	r7, r3
 8000476:	e9c5 7100 	strd	r7, r1, [r5]
 800047a:	2600      	movs	r6, #0
 800047c:	4631      	mov	r1, r6
 800047e:	e8bd 87f0 	ldmia.w	sp!, {r4, r5, r6, r7, r8, r9, sl, pc}
 8000482:	f1c2 0320 	rsb	r3, r2, #32
 8000486:	40d8      	lsrs	r0, r3
 8000488:	fa0c fc02 	lsl.w	ip, ip, r2
 800048c:	fa21 f303 	lsr.w	r3, r1, r3
 8000490:	4091      	lsls	r1, r2
 8000492:	4301      	orrs	r1, r0
 8000494:	ea4f 471c 	mov.w	r7, ip, lsr #16
 8000498:	fa1f fe8c 	uxth.w	lr, ip
 800049c:	fbb3 f0f7 	udiv	r0, r3, r7
 80004a0:	fb07 3610 	mls	r6, r7, r0, r3
 80004a4:	0c0b      	lsrs	r3, r1, #16
 80004a6:	ea43 4306 	orr.w	r3, r3, r6, lsl #16
 80004aa:	fb00 f60e 	mul.w	r6, r0, lr
 80004ae:	429e      	cmp	r6, r3
 80004b0:	fa04 f402 	lsl.w	r4, r4, r2
 80004b4:	d908      	bls.n	80004c8 <__udivmoddi4+0x260>
 80004b6:	eb1c 0303 	adds.w	r3, ip, r3
 80004ba:	f100 38ff 	add.w	r8, r0, #4294967295
 80004be:	d22f      	bcs.n	8000520 <__udivmoddi4+0x2b8>
 80004c0:	429e      	cmp	r6, r3
 80004c2:	d92d      	bls.n	8000520 <__udivmoddi4+0x2b8>
 80004c4:	3802      	subs	r0, #2
 80004c6:	4463      	add	r3, ip
 80004c8:	1b9b      	subs	r3, r3, r6
 80004ca:	b289      	uxth	r1, r1
 80004cc:	fbb3 f6f7 	udiv	r6, r3, r7
 80004d0:	fb07 3316 	mls	r3, r7, r6, r3
 80004d4:	ea41 4103 	orr.w	r1, r1, r3, lsl #16
 80004d8:	fb06 f30e 	mul.w	r3, r6, lr
 80004dc:	428b      	cmp	r3, r1
 80004de:	d908      	bls.n	80004f2 <__udivmoddi4+0x28a>
 80004e0:	eb1c 0101 	adds.w	r1, ip, r1
 80004e4:	f106 38ff 	add.w	r8, r6, #4294967295
 80004e8:	d216      	bcs.n	8000518 <__udivmoddi4+0x2b0>
 80004ea:	428b      	cmp	r3, r1
 80004ec:	d914      	bls.n	8000518 <__udivmoddi4+0x2b0>
 80004ee:	3e02      	subs	r6, #2
 80004f0:	4461      	add	r1, ip
 80004f2:	1ac9      	subs	r1, r1, r3
 80004f4:	ea46 4600 	orr.w	r6, r6, r0, lsl #16
 80004f8:	e738      	b.n	800036c <__udivmoddi4+0x104>
 80004fa:	462e      	mov	r6, r5
 80004fc:	4628      	mov	r0, r5
 80004fe:	e705      	b.n	800030c <__udivmoddi4+0xa4>
 8000500:	4606      	mov	r6, r0
 8000502:	e6e3      	b.n	80002cc <__udivmoddi4+0x64>
 8000504:	4618      	mov	r0, r3
 8000506:	e6f8      	b.n	80002fa <__udivmoddi4+0x92>
 8000508:	454b      	cmp	r3, r9
 800050a:	d2a9      	bcs.n	8000460 <__udivmoddi4+0x1f8>
 800050c:	ebb9 0802 	subs.w	r8, r9, r2
 8000510:	eb64 0e0c 	sbc.w	lr, r4, ip
 8000514:	3801      	subs	r0, #1
 8000516:	e7a3      	b.n	8000460 <__udivmoddi4+0x1f8>
 8000518:	4646      	mov	r6, r8
 800051a:	e7ea      	b.n	80004f2 <__udivmoddi4+0x28a>
 800051c:	4620      	mov	r0, r4
 800051e:	e794      	b.n	800044a <__udivmoddi4+0x1e2>
 8000520:	4640      	mov	r0, r8
 8000522:	e7d1      	b.n	80004c8 <__udivmoddi4+0x260>
 8000524:	46d0      	mov	r8, sl
 8000526:	e77b      	b.n	8000420 <__udivmoddi4+0x1b8>
 8000528:	3b02      	subs	r3, #2
 800052a:	4461      	add	r1, ip
 800052c:	e732      	b.n	8000394 <__udivmoddi4+0x12c>
 800052e:	4630      	mov	r0, r6
 8000530:	e709      	b.n	8000346 <__udivmoddi4+0xde>
 8000532:	4464      	add	r4, ip
 8000534:	3802      	subs	r0, #2
 8000536:	e742      	b.n	80003be <__udivmoddi4+0x156>

08000538 <__aeabi_idiv0>:
 8000538:	4770      	bx	lr
 800053a:	bf00      	nop

0800053c <main>:
/**
  * @brief  The application entry point.
  * @retval int
  */
int main(void)
{
 800053c:	b580      	push	{r7, lr}
 800053e:	af00      	add	r7, sp, #0
  /* USER CODE END 1 */

  /* MCU Configuration--------------------------------------------------------*/

  /* Reset of all peripherals, Initializes the Flash interface and the Systick. */
  HAL_Init();
 8000540:	f000 f927 	bl	8000792 <HAL_Init>
  /* USER CODE BEGIN Init */

  /* USER CODE END Init */

  /* Configure the system clock */
  SystemClock_Config();
 8000544:	f000 f804 	bl	8000550 <SystemClock_Config>
  /* USER CODE BEGIN SysInit */

  /* USER CODE END SysInit */

  /* Initialize all configured peripherals */
  MX_GPIO_Init();
 8000548:	f000 f870 	bl	800062c <MX_GPIO_Init>

  /* USER CODE END 2 */

  /* Infinite loop */
  /* USER CODE BEGIN WHILE */
  while (1)
 800054c:	e7fe      	b.n	800054c <main+0x10>
	...

08000550 <SystemClock_Config>:
/**
  * @brief System Clock Configuration
  * @retval None
  */
void SystemClock_Config(void)
{
 8000550:	b580      	push	{r7, lr}
 8000552:	b094      	sub	sp, #80	; 0x50
 8000554:	af00      	add	r7, sp, #0
  RCC_OscInitTypeDef RCC_OscInitStruct = {0};
 8000556:	f107 031c 	add.w	r3, r7, #28
 800055a:	2234      	movs	r2, #52	; 0x34
 800055c:	2100      	movs	r1, #0
 800055e:	4618      	mov	r0, r3
 8000560:	f000 ff2e 	bl	80013c0 <memset>
  RCC_ClkInitTypeDef RCC_ClkInitStruct = {0};
 8000564:	f107 0308 	add.w	r3, r7, #8
 8000568:	2200      	movs	r2, #0
 800056a:	601a      	str	r2, [r3, #0]
 800056c:	605a      	str	r2, [r3, #4]
 800056e:	609a      	str	r2, [r3, #8]
 8000570:	60da      	str	r2, [r3, #12]
 8000572:	611a      	str	r2, [r3, #16]

  /** Configure the main internal regulator output voltage
  */
  __HAL_RCC_PWR_CLK_ENABLE();
 8000574:	4b2b      	ldr	r3, [pc, #172]	; (8000624 <SystemClock_Config+0xd4>)
 8000576:	6c1b      	ldr	r3, [r3, #64]	; 0x40
 8000578:	4a2a      	ldr	r2, [pc, #168]	; (8000624 <SystemClock_Config+0xd4>)
 800057a:	f043 5380 	orr.w	r3, r3, #268435456	; 0x10000000
 800057e:	6413      	str	r3, [r2, #64]	; 0x40
 8000580:	4b28      	ldr	r3, [pc, #160]	; (8000624 <SystemClock_Config+0xd4>)
 8000582:	6c1b      	ldr	r3, [r3, #64]	; 0x40
 8000584:	f003 5380 	and.w	r3, r3, #268435456	; 0x10000000
 8000588:	607b      	str	r3, [r7, #4]
 800058a:	687b      	ldr	r3, [r7, #4]
  __HAL_PWR_VOLTAGESCALING_CONFIG(PWR_REGULATOR_VOLTAGE_SCALE1);
 800058c:	4b26      	ldr	r3, [pc, #152]	; (8000628 <SystemClock_Config+0xd8>)
 800058e:	681b      	ldr	r3, [r3, #0]
 8000590:	4a25      	ldr	r2, [pc, #148]	; (8000628 <SystemClock_Config+0xd8>)
 8000592:	f443 4340 	orr.w	r3, r3, #49152	; 0xc000
 8000596:	6013      	str	r3, [r2, #0]
 8000598:	4b23      	ldr	r3, [pc, #140]	; (8000628 <SystemClock_Config+0xd8>)
 800059a:	681b      	ldr	r3, [r3, #0]
 800059c:	f403 4340 	and.w	r3, r3, #49152	; 0xc000
 80005a0:	603b      	str	r3, [r7, #0]
 80005a2:	683b      	ldr	r3, [r7, #0]

  /** Initializes the RCC Oscillators according to the specified parameters
  * in the RCC_OscInitTypeDef structure.
  */
  RCC_OscInitStruct.OscillatorType = RCC_OSCILLATORTYPE_HSI;
 80005a4:	2302      	movs	r3, #2
 80005a6:	61fb      	str	r3, [r7, #28]
  RCC_OscInitStruct.HSIState = RCC_HSI_ON;
 80005a8:	2301      	movs	r3, #1
 80005aa:	62bb      	str	r3, [r7, #40]	; 0x28
  RCC_OscInitStruct.HSICalibrationValue = RCC_HSICALIBRATION_DEFAULT;
 80005ac:	2310      	movs	r3, #16
 80005ae:	62fb      	str	r3, [r7, #44]	; 0x2c
  RCC_OscInitStruct.PLL.PLLState = RCC_PLL_ON;
 80005b0:	2302      	movs	r3, #2
 80005b2:	637b      	str	r3, [r7, #52]	; 0x34
  RCC_OscInitStruct.PLL.PLLSource = RCC_PLLSOURCE_HSI;
 80005b4:	2300      	movs	r3, #0
 80005b6:	63bb      	str	r3, [r7, #56]	; 0x38
  RCC_OscInitStruct.PLL.PLLM = 8;
 80005b8:	2308      	movs	r3, #8
 80005ba:	63fb      	str	r3, [r7, #60]	; 0x3c
  RCC_OscInitStruct.PLL.PLLN = 216;
 80005bc:	23d8      	movs	r3, #216	; 0xd8
 80005be:	643b      	str	r3, [r7, #64]	; 0x40
  RCC_OscInitStruct.PLL.PLLP = RCC_PLLP_DIV2;
 80005c0:	2302      	movs	r3, #2
 80005c2:	647b      	str	r3, [r7, #68]	; 0x44
  RCC_OscInitStruct.PLL.PLLQ = 2;
 80005c4:	2302      	movs	r3, #2
 80005c6:	64bb      	str	r3, [r7, #72]	; 0x48
  RCC_OscInitStruct.PLL.PLLR = 2;
 80005c8:	2302      	movs	r3, #2
 80005ca:	64fb      	str	r3, [r7, #76]	; 0x4c
  if (HAL_RCC_OscConfig(&RCC_OscInitStruct) != HAL_OK)
 80005cc:	f107 031c 	add.w	r3, r7, #28
 80005d0:	4618      	mov	r0, r3
 80005d2:	f000 fa71 	bl	8000ab8 <HAL_RCC_OscConfig>
 80005d6:	4603      	mov	r3, r0
 80005d8:	2b00      	cmp	r3, #0
 80005da:	d001      	beq.n	80005e0 <SystemClock_Config+0x90>
  {
    Error_Handler();
 80005dc:	f000 f84a 	bl	8000674 <Error_Handler>
  }

  /** Activate the Over-Drive mode
  */
  if (HAL_PWREx_EnableOverDrive() != HAL_OK)
 80005e0:	f000 fa1a 	bl	8000a18 <HAL_PWREx_EnableOverDrive>
 80005e4:	4603      	mov	r3, r0
 80005e6:	2b00      	cmp	r3, #0
 80005e8:	d001      	beq.n	80005ee <SystemClock_Config+0x9e>
  {
    Error_Handler();
 80005ea:	f000 f843 	bl	8000674 <Error_Handler>
  }

  /** Initializes the CPU, AHB and APB buses clocks
  */
  RCC_ClkInitStruct.ClockType = RCC_CLOCKTYPE_HCLK|RCC_CLOCKTYPE_SYSCLK
 80005ee:	230f      	movs	r3, #15
 80005f0:	60bb      	str	r3, [r7, #8]
                              |RCC_CLOCKTYPE_PCLK1|RCC_CLOCKTYPE_PCLK2;
  RCC_ClkInitStruct.SYSCLKSource = RCC_SYSCLKSOURCE_PLLCLK;
 80005f2:	2302      	movs	r3, #2
 80005f4:	60fb      	str	r3, [r7, #12]
  RCC_ClkInitStruct.AHBCLKDivider = RCC_SYSCLK_DIV1;
 80005f6:	2300      	movs	r3, #0
 80005f8:	613b      	str	r3, [r7, #16]
  RCC_ClkInitStruct.APB1CLKDivider = RCC_HCLK_DIV4;
 80005fa:	f44f 53a0 	mov.w	r3, #5120	; 0x1400
 80005fe:	617b      	str	r3, [r7, #20]
  RCC_ClkInitStruct.APB2CLKDivider = RCC_HCLK_DIV2;
 8000600:	f44f 5380 	mov.w	r3, #4096	; 0x1000
 8000604:	61bb      	str	r3, [r7, #24]

  if (HAL_RCC_ClockConfig(&RCC_ClkInitStruct, FLASH_LATENCY_7) != HAL_OK)
 8000606:	f107 0308 	add.w	r3, r7, #8
 800060a:	2107      	movs	r1, #7
 800060c:	4618      	mov	r0, r3
 800060e:	f000 fd01 	bl	8001014 <HAL_RCC_ClockConfig>
 8000612:	4603      	mov	r3, r0
 8000614:	2b00      	cmp	r3, #0
 8000616:	d001      	beq.n	800061c <SystemClock_Config+0xcc>
  {
    Error_Handler();
 8000618:	f000 f82c 	bl	8000674 <Error_Handler>
  }
}
 800061c:	bf00      	nop
 800061e:	3750      	adds	r7, #80	; 0x50
 8000620:	46bd      	mov	sp, r7
 8000622:	bd80      	pop	{r7, pc}
 8000624:	40023800 	.word	0x40023800
 8000628:	40007000 	.word	0x40007000

0800062c <MX_GPIO_Init>:
  * @brief GPIO Initialization Function
  * @param None
  * @retval None
  */
static void MX_GPIO_Init(void)
{
 800062c:	b480      	push	{r7}
 800062e:	b083      	sub	sp, #12
 8000630:	af00      	add	r7, sp, #0

  /* GPIO Ports Clock Enable */
  __HAL_RCC_GPIOA_CLK_ENABLE();
 8000632:	4b0f      	ldr	r3, [pc, #60]	; (8000670 <MX_GPIO_Init+0x44>)
 8000634:	6b1b      	ldr	r3, [r3, #48]	; 0x30
 8000636:	4a0e      	ldr	r2, [pc, #56]	; (8000670 <MX_GPIO_Init+0x44>)
 8000638:	f043 0301 	orr.w	r3, r3, #1
 800063c:	6313      	str	r3, [r2, #48]	; 0x30
 800063e:	4b0c      	ldr	r3, [pc, #48]	; (8000670 <MX_GPIO_Init+0x44>)
 8000640:	6b1b      	ldr	r3, [r3, #48]	; 0x30
 8000642:	f003 0301 	and.w	r3, r3, #1
 8000646:	607b      	str	r3, [r7, #4]
 8000648:	687b      	ldr	r3, [r7, #4]
  __HAL_RCC_GPIOH_CLK_ENABLE();
 800064a:	4b09      	ldr	r3, [pc, #36]	; (8000670 <MX_GPIO_Init+0x44>)
 800064c:	6b1b      	ldr	r3, [r3, #48]	; 0x30
 800064e:	4a08      	ldr	r2, [pc, #32]	; (8000670 <MX_GPIO_Init+0x44>)
 8000650:	f043 0380 	orr.w	r3, r3, #128	; 0x80
 8000654:	6313      	str	r3, [r2, #48]	; 0x30
 8000656:	4b06      	ldr	r3, [pc, #24]	; (8000670 <MX_GPIO_Init+0x44>)
 8000658:	6b1b      	ldr	r3, [r3, #48]	; 0x30
 800065a:	f003 0380 	and.w	r3, r3, #128	; 0x80
 800065e:	603b      	str	r3, [r7, #0]
 8000660:	683b      	ldr	r3, [r7, #0]

}
 8000662:	bf00      	nop
 8000664:	370c      	adds	r7, #12
 8000666:	46bd      	mov	sp, r7
 8000668:	f85d 7b04 	ldr.w	r7, [sp], #4
 800066c:	4770      	bx	lr
 800066e:	bf00      	nop
 8000670:	40023800 	.word	0x40023800

08000674 <Error_Handler>:
/**
  * @brief  This function is executed in case of error occurrence.
  * @retval None
  */
void Error_Handler(void)
{
 8000674:	b480      	push	{r7}
 8000676:	af00      	add	r7, sp, #0
  \details Disables IRQ interrupts by setting the I-bit in the CPSR.
           Can only be executed in Privileged modes.
 */
__STATIC_FORCEINLINE void __disable_irq(void)
{
  __ASM volatile ("cpsid i" : : : "memory");
 8000678:	b672      	cpsid	i
}
 800067a:	bf00      	nop
  /* USER CODE BEGIN Error_Handler_Debug */
  /* User can add his own implementation to report the HAL error return state */
  __disable_irq();
  while (1)
 800067c:	e7fe      	b.n	800067c <Error_Handler+0x8>
	...

08000680 <HAL_MspInit>:
/* USER CODE END 0 */
/**
  * Initializes the Global MSP.
  */
void HAL_MspInit(void)
{
 8000680:	b480      	push	{r7}
 8000682:	b083      	sub	sp, #12
 8000684:	af00      	add	r7, sp, #0
  /* USER CODE BEGIN MspInit 0 */

  /* USER CODE END MspInit 0 */

  __HAL_RCC_PWR_CLK_ENABLE();
 8000686:	4b0f      	ldr	r3, [pc, #60]	; (80006c4 <HAL_MspInit+0x44>)
 8000688:	6c1b      	ldr	r3, [r3, #64]	; 0x40
 800068a:	4a0e      	ldr	r2, [pc, #56]	; (80006c4 <HAL_MspInit+0x44>)
 800068c:	f043 5380 	orr.w	r3, r3, #268435456	; 0x10000000
 8000690:	6413      	str	r3, [r2, #64]	; 0x40
 8000692:	4b0c      	ldr	r3, [pc, #48]	; (80006c4 <HAL_MspInit+0x44>)
 8000694:	6c1b      	ldr	r3, [r3, #64]	; 0x40
 8000696:	f003 5380 	and.w	r3, r3, #268435456	; 0x10000000
 800069a:	607b      	str	r3, [r7, #4]
 800069c:	687b      	ldr	r3, [r7, #4]
  __HAL_RCC_SYSCFG_CLK_ENABLE();
 800069e:	4b09      	ldr	r3, [pc, #36]	; (80006c4 <HAL_MspInit+0x44>)
 80006a0:	6c5b      	ldr	r3, [r3, #68]	; 0x44
 80006a2:	4a08      	ldr	r2, [pc, #32]	; (80006c4 <HAL_MspInit+0x44>)
 80006a4:	f443 4380 	orr.w	r3, r3, #16384	; 0x4000
 80006a8:	6453      	str	r3, [r2, #68]	; 0x44
 80006aa:	4b06      	ldr	r3, [pc, #24]	; (80006c4 <HAL_MspInit+0x44>)
 80006ac:	6c5b      	ldr	r3, [r3, #68]	; 0x44
 80006ae:	f403 4380 	and.w	r3, r3, #16384	; 0x4000
 80006b2:	603b      	str	r3, [r7, #0]
 80006b4:	683b      	ldr	r3, [r7, #0]
  /* System interrupt init*/

  /* USER CODE BEGIN MspInit 1 */

  /* USER CODE END MspInit 1 */
}
 80006b6:	bf00      	nop
 80006b8:	370c      	adds	r7, #12
 80006ba:	46bd      	mov	sp, r7
 80006bc:	f85d 7b04 	ldr.w	r7, [sp], #4
 80006c0:	4770      	bx	lr
 80006c2:	bf00      	nop
 80006c4:	40023800 	.word	0x40023800

080006c8 <NMI_Handler>:
/******************************************************************************/
/**
  * @brief This function handles Non maskable interrupt.
  */
void NMI_Handler(void)
{
 80006c8:	b480      	push	{r7}
 80006ca:	af00      	add	r7, sp, #0
  /* USER CODE BEGIN NonMaskableInt_IRQn 0 */

  /* USER CODE END NonMaskableInt_IRQn 0 */
  /* USER CODE BEGIN NonMaskableInt_IRQn 1 */
  while (1)
 80006cc:	e7fe      	b.n	80006cc <NMI_Handler+0x4>

080006ce <HardFault_Handler>:

/**
  * @brief This function handles Hard fault interrupt.
  */
void HardFault_Handler(void)
{
 80006ce:	b480      	push	{r7}
 80006d0:	af00      	add	r7, sp, #0
  /* USER CODE BEGIN HardFault_IRQn 0 */

  /* USER CODE END HardFault_IRQn 0 */
  while (1)
 80006d2:	e7fe      	b.n	80006d2 <HardFault_Handler+0x4>

080006d4 <MemManage_Handler>:

/**
  * @brief This function handles Memory management fault.
  */
void MemManage_Handler(void)
{
 80006d4:	b480      	push	{r7}
 80006d6:	af00      	add	r7, sp, #0
  /* USER CODE BEGIN MemoryManagement_IRQn 0 */

  /* USER CODE END MemoryManagement_IRQn 0 */
  while (1)
 80006d8:	e7fe      	b.n	80006d8 <MemManage_Handler+0x4>

080006da <BusFault_Handler>:

/**
  * @brief This function handles Pre-fetch fault, memory access fault.
  */
void BusFault_Handler(void)
{
 80006da:	b480      	push	{r7}
 80006dc:	af00      	add	r7, sp, #0
  /* USER CODE BEGIN BusFault_IRQn 0 */

  /* USER CODE END BusFault_IRQn 0 */
  while (1)
 80006de:	e7fe      	b.n	80006de <BusFault_Handler+0x4>

080006e0 <UsageFault_Handler>:

/**
  * @brief This function handles Undefined instruction or illegal state.
  */
void UsageFault_Handler(void)
{
 80006e0:	b480      	push	{r7}
 80006e2:	af00      	add	r7, sp, #0
  /* USER CODE BEGIN UsageFault_IRQn 0 */

  /* USER CODE END UsageFault_IRQn 0 */
  while (1)
 80006e4:	e7fe      	b.n	80006e4 <UsageFault_Handler+0x4>

080006e6 <SVC_Handler>:

/**
  * @brief This function handles System service call via SWI instruction.
  */
void SVC_Handler(void)
{
 80006e6:	b480      	push	{r7}
 80006e8:	af00      	add	r7, sp, #0

  /* USER CODE END SVCall_IRQn 0 */
  /* USER CODE BEGIN SVCall_IRQn 1 */

  /* USER CODE END SVCall_IRQn 1 */
}
 80006ea:	bf00      	nop
 80006ec:	46bd      	mov	sp, r7
 80006ee:	f85d 7b04 	ldr.w	r7, [sp], #4
 80006f2:	4770      	bx	lr

080006f4 <DebugMon_Handler>:

/**
  * @brief This function handles Debug monitor.
  */
void DebugMon_Handler(void)
{
 80006f4:	b480      	push	{r7}
 80006f6:	af00      	add	r7, sp, #0

  /* USER CODE END DebugMonitor_IRQn 0 */
  /* USER CODE BEGIN DebugMonitor_IRQn 1 */

  /* USER CODE END DebugMonitor_IRQn 1 */
}
 80006f8:	bf00      	nop
 80006fa:	46bd      	mov	sp, r7
 80006fc:	f85d 7b04 	ldr.w	r7, [sp], #4
 8000700:	4770      	bx	lr

08000702 <PendSV_Handler>:

/**
  * @brief This function handles Pendable request for system service.
  */
void PendSV_Handler(void)
{
 8000702:	b480      	push	{r7}
 8000704:	af00      	add	r7, sp, #0

  /* USER CODE END PendSV_IRQn 0 */
  /* USER CODE BEGIN PendSV_IRQn 1 */

  /* USER CODE END PendSV_IRQn 1 */
}
 8000706:	bf00      	nop
 8000708:	46bd      	mov	sp, r7
 800070a:	f85d 7b04 	ldr.w	r7, [sp], #4
 800070e:	4770      	bx	lr

08000710 <SysTick_Handler>:

/**
  * @brief This function handles System tick timer.
  */
void SysTick_Handler(void)
{
 8000710:	b580      	push	{r7, lr}
 8000712:	af00      	add	r7, sp, #0
  /* USER CODE BEGIN SysTick_IRQn 0 */

  /* USER CODE END SysTick_IRQn 0 */
  HAL_IncTick();
 8000714:	f000 f87a 	bl	800080c <HAL_IncTick>
  /* USER CODE BEGIN SysTick_IRQn 1 */

  /* USER CODE END SysTick_IRQn 1 */
}
 8000718:	bf00      	nop
 800071a:	bd80      	pop	{r7, pc}

0800071c <SystemInit>:
  *         SystemFrequency variable.
  * @param  None
  * @retval None
  */
void SystemInit(void)
{
 800071c:	b480      	push	{r7}
 800071e:	af00      	add	r7, sp, #0
  /* FPU settings ------------------------------------------------------------*/
#if (__FPU_PRESENT == 1) && (__FPU_USED == 1)
  SCB->CPACR |= ((3UL << 10*2)|(3UL << 11*2));  /* set CP10 and CP11 Full Access */
 8000720:	4b06      	ldr	r3, [pc, #24]	; (800073c <SystemInit+0x20>)
 8000722:	f8d3 3088 	ldr.w	r3, [r3, #136]	; 0x88
 8000726:	4a05      	ldr	r2, [pc, #20]	; (800073c <SystemInit+0x20>)
 8000728:	f443 0370 	orr.w	r3, r3, #15728640	; 0xf00000
 800072c:	f8c2 3088 	str.w	r3, [r2, #136]	; 0x88

  /* Configure the Vector Table location -------------------------------------*/
#if defined(USER_VECT_TAB_ADDRESS)
  SCB->VTOR = VECT_TAB_BASE_ADDRESS | VECT_TAB_OFFSET; /* Vector Table Relocation in Internal SRAM */
#endif /* USER_VECT_TAB_ADDRESS */
}
 8000730:	bf00      	nop
 8000732:	46bd      	mov	sp, r7
 8000734:	f85d 7b04 	ldr.w	r7, [sp], #4
 8000738:	4770      	bx	lr
 800073a:	bf00      	nop
 800073c:	e000ed00 	.word	0xe000ed00

08000740 <Reset_Handler>:

    .section  .text.Reset_Handler
  .weak  Reset_Handler
  .type  Reset_Handler, %function
Reset_Handler:  
  ldr   sp, =_estack      /* set stack pointer */
 8000740:	f8df d034 	ldr.w	sp, [pc, #52]	; 8000778 <LoopFillZerobss+0x12>

/* Copy the data segment initializers from flash to SRAM */  
  ldr r0, =_sdata
 8000744:	480d      	ldr	r0, [pc, #52]	; (800077c <LoopFillZerobss+0x16>)
  ldr r1, =_edata
 8000746:	490e      	ldr	r1, [pc, #56]	; (8000780 <LoopFillZerobss+0x1a>)
  ldr r2, =_sidata
 8000748:	4a0e      	ldr	r2, [pc, #56]	; (8000784 <LoopFillZerobss+0x1e>)
  movs r3, #0
 800074a:	2300      	movs	r3, #0
  b LoopCopyDataInit
 800074c:	e002      	b.n	8000754 <LoopCopyDataInit>

0800074e <CopyDataInit>:

CopyDataInit:
  ldr r4, [r2, r3]
 800074e:	58d4      	ldr	r4, [r2, r3]
  str r4, [r0, r3]
 8000750:	50c4      	str	r4, [r0, r3]
  adds r3, r3, #4
 8000752:	3304      	adds	r3, #4

08000754 <LoopCopyDataInit>:

LoopCopyDataInit:
  adds r4, r0, r3
 8000754:	18c4      	adds	r4, r0, r3
  cmp r4, r1
 8000756:	428c      	cmp	r4, r1
  bcc CopyDataInit
 8000758:	d3f9      	bcc.n	800074e <CopyDataInit>
  
/* Zero fill the bss segment. */
  ldr r2, =_sbss
 800075a:	4a0b      	ldr	r2, [pc, #44]	; (8000788 <LoopFillZerobss+0x22>)
  ldr r4, =_ebss
 800075c:	4c0b      	ldr	r4, [pc, #44]	; (800078c <LoopFillZerobss+0x26>)
  movs r3, #0
 800075e:	2300      	movs	r3, #0
  b LoopFillZerobss
 8000760:	e001      	b.n	8000766 <LoopFillZerobss>

08000762 <FillZerobss>:

FillZerobss:
  str  r3, [r2]
 8000762:	6013      	str	r3, [r2, #0]
  adds r2, r2, #4
 8000764:	3204      	adds	r2, #4

08000766 <LoopFillZerobss>:

LoopFillZerobss:
  cmp r2, r4
 8000766:	42a2      	cmp	r2, r4
  bcc FillZerobss
 8000768:	d3fb      	bcc.n	8000762 <FillZerobss>

/* Call the clock system intitialization function.*/
  bl  SystemInit   
 800076a:	f7ff ffd7 	bl	800071c <SystemInit>
/* Call static constructors */
    bl __libc_init_array
 800076e:	f000 fe03 	bl	8001378 <__libc_init_array>
/* Call the application's entry point.*/
  bl  main
 8000772:	f7ff fee3 	bl	800053c <main>
  bx  lr    
 8000776:	4770      	bx	lr
  ldr   sp, =_estack      /* set stack pointer */
 8000778:	20080000 	.word	0x20080000
  ldr r0, =_sdata
 800077c:	20000000 	.word	0x20000000
  ldr r1, =_edata
 8000780:	2000000c 	.word	0x2000000c
  ldr r2, =_sidata
 8000784:	08001408 	.word	0x08001408
  ldr r2, =_sbss
 8000788:	2000000c 	.word	0x2000000c
  ldr r4, =_ebss
 800078c:	2000002c 	.word	0x2000002c

08000790 <ADC_IRQHandler>:
 * @retval None       
*/
    .section  .text.Default_Handler,"ax",%progbits
Default_Handler:
Infinite_Loop:
  b  Infinite_Loop
 8000790:	e7fe      	b.n	8000790 <ADC_IRQHandler>

08000792 <HAL_Init>:
  *         need to ensure that the SysTick time base is always set to 1 millisecond
  *         to have correct HAL operation.
  * @retval HAL status
  */
HAL_StatusTypeDef HAL_Init(void)
{
 8000792:	b580      	push	{r7, lr}
 8000794:	af00      	add	r7, sp, #0
#if (PREFETCH_ENABLE != 0U)
  __HAL_FLASH_PREFETCH_BUFFER_ENABLE();
#endif /* PREFETCH_ENABLE */

  /* Set Interrupt Group Priority */
  HAL_NVIC_SetPriorityGrouping(NVIC_PRIORITYGROUP_4);
 8000796:	2003      	movs	r0, #3
 8000798:	f000 f90a 	bl	80009b0 <HAL_NVIC_SetPriorityGrouping>

  /* Use systick as time base source and configure 1ms tick (default clock after Reset is HSI) */
  HAL_InitTick(TICK_INT_PRIORITY);
 800079c:	200f      	movs	r0, #15
 800079e:	f000 f805 	bl	80007ac <HAL_InitTick>

  /* Init the low level hardware */
  HAL_MspInit();
 80007a2:	f7ff ff6d 	bl	8000680 <HAL_MspInit>

  /* Return function status */
  return HAL_OK;
 80007a6:	2300      	movs	r3, #0
}
 80007a8:	4618      	mov	r0, r3
 80007aa:	bd80      	pop	{r7, pc}

080007ac <HAL_InitTick>:
  *       implementation  in user file.
  * @param TickPriority Tick interrupt priority.
  * @retval HAL status
  */
__weak HAL_StatusTypeDef HAL_InitTick(uint32_t TickPriority)
{
 80007ac:	b580      	push	{r7, lr}
 80007ae:	b082      	sub	sp, #8
 80007b0:	af00      	add	r7, sp, #0
 80007b2:	6078      	str	r0, [r7, #4]
  /* Configure the SysTick to have interrupt in 1ms time basis*/
  if (HAL_SYSTICK_Config(SystemCoreClock / (1000U / uwTickFreq)) > 0U)
 80007b4:	4b12      	ldr	r3, [pc, #72]	; (8000800 <HAL_InitTick+0x54>)
 80007b6:	681a      	ldr	r2, [r3, #0]
 80007b8:	4b12      	ldr	r3, [pc, #72]	; (8000804 <HAL_InitTick+0x58>)
 80007ba:	781b      	ldrb	r3, [r3, #0]
 80007bc:	4619      	mov	r1, r3
 80007be:	f44f 737a 	mov.w	r3, #1000	; 0x3e8
 80007c2:	fbb3 f3f1 	udiv	r3, r3, r1
 80007c6:	fbb2 f3f3 	udiv	r3, r2, r3
 80007ca:	4618      	mov	r0, r3
 80007cc:	f000 f917 	bl	80009fe <HAL_SYSTICK_Config>
 80007d0:	4603      	mov	r3, r0
 80007d2:	2b00      	cmp	r3, #0
 80007d4:	d001      	beq.n	80007da <HAL_InitTick+0x2e>
  {
    return HAL_ERROR;
 80007d6:	2301      	movs	r3, #1
 80007d8:	e00e      	b.n	80007f8 <HAL_InitTick+0x4c>
  }

  /* Configure the SysTick IRQ priority */
  if (TickPriority < (1UL << __NVIC_PRIO_BITS))
 80007da:	687b      	ldr	r3, [r7, #4]
 80007dc:	2b0f      	cmp	r3, #15
 80007de:	d80a      	bhi.n	80007f6 <HAL_InitTick+0x4a>
  {
    HAL_NVIC_SetPriority(SysTick_IRQn, TickPriority, 0U);
 80007e0:	2200      	movs	r2, #0
 80007e2:	6879      	ldr	r1, [r7, #4]
 80007e4:	f04f 30ff 	mov.w	r0, #4294967295
 80007e8:	f000 f8ed 	bl	80009c6 <HAL_NVIC_SetPriority>
    uwTickPrio = TickPriority;
 80007ec:	4a06      	ldr	r2, [pc, #24]	; (8000808 <HAL_InitTick+0x5c>)
 80007ee:	687b      	ldr	r3, [r7, #4]
 80007f0:	6013      	str	r3, [r2, #0]
  {
    return HAL_ERROR;
  }

  /* Return function status */
  return HAL_OK;
 80007f2:	2300      	movs	r3, #0
 80007f4:	e000      	b.n	80007f8 <HAL_InitTick+0x4c>
    return HAL_ERROR;
 80007f6:	2301      	movs	r3, #1
}
 80007f8:	4618      	mov	r0, r3
 80007fa:	3708      	adds	r7, #8
 80007fc:	46bd      	mov	sp, r7
 80007fe:	bd80      	pop	{r7, pc}
 8000800:	20000000 	.word	0x20000000
 8000804:	20000008 	.word	0x20000008
 8000808:	20000004 	.word	0x20000004

0800080c <HAL_IncTick>:
 * @note This function is declared as __weak to be overwritten in case of other 
  *      implementations in user file.
  * @retval None
  */
__weak void HAL_IncTick(void)
{
 800080c:	b480      	push	{r7}
 800080e:	af00      	add	r7, sp, #0
  uwTick += uwTickFreq;
 8000810:	4b06      	ldr	r3, [pc, #24]	; (800082c <HAL_IncTick+0x20>)
 8000812:	781b      	ldrb	r3, [r3, #0]
 8000814:	461a      	mov	r2, r3
 8000816:	4b06      	ldr	r3, [pc, #24]	; (8000830 <HAL_IncTick+0x24>)
 8000818:	681b      	ldr	r3, [r3, #0]
 800081a:	4413      	add	r3, r2
 800081c:	4a04      	ldr	r2, [pc, #16]	; (8000830 <HAL_IncTick+0x24>)
 800081e:	6013      	str	r3, [r2, #0]
}
 8000820:	bf00      	nop
 8000822:	46bd      	mov	sp, r7
 8000824:	f85d 7b04 	ldr.w	r7, [sp], #4
 8000828:	4770      	bx	lr
 800082a:	bf00      	nop
 800082c:	20000008 	.word	0x20000008
 8000830:	20000028 	.word	0x20000028

08000834 <HAL_GetTick>:
  * @note This function is declared as __weak to be overwritten in case of other 
  *       implementations in user file.
  * @retval tick value
  */
__weak uint32_t HAL_GetTick(void)
{
 8000834:	b480      	push	{r7}
 8000836:	af00      	add	r7, sp, #0
  return uwTick;
 8000838:	4b03      	ldr	r3, [pc, #12]	; (8000848 <HAL_GetTick+0x14>)
 800083a:	681b      	ldr	r3, [r3, #0]
}
 800083c:	4618      	mov	r0, r3
 800083e:	46bd      	mov	sp, r7
 8000840:	f85d 7b04 	ldr.w	r7, [sp], #4
 8000844:	4770      	bx	lr
 8000846:	bf00      	nop
 8000848:	20000028 	.word	0x20000028

0800084c <__NVIC_SetPriorityGrouping>:
           In case of a conflict between priority grouping and available
           priority bits (__NVIC_PRIO_BITS), the smallest possible priority group is set.
  \param [in]      PriorityGroup  Priority grouping field.
 */
__STATIC_INLINE void __NVIC_SetPriorityGrouping(uint32_t PriorityGroup)
{
 800084c:	b480      	push	{r7}
 800084e:	b085      	sub	sp, #20
 8000850:	af00      	add	r7, sp, #0
 8000852:	6078      	str	r0, [r7, #4]
  uint32_t reg_value;
  uint32_t PriorityGroupTmp = (PriorityGroup & (uint32_t)0x07UL);             /* only values 0..7 are used          */
 8000854:	687b      	ldr	r3, [r7, #4]
 8000856:	f003 0307 	and.w	r3, r3, #7
 800085a:	60fb      	str	r3, [r7, #12]

  reg_value  =  SCB->AIRCR;                                                   /* read old register configuration    */
 800085c:	4b0b      	ldr	r3, [pc, #44]	; (800088c <__NVIC_SetPriorityGrouping+0x40>)
 800085e:	68db      	ldr	r3, [r3, #12]
 8000860:	60bb      	str	r3, [r7, #8]
  reg_value &= ~((uint32_t)(SCB_AIRCR_VECTKEY_Msk | SCB_AIRCR_PRIGROUP_Msk)); /* clear bits to change               */
 8000862:	68ba      	ldr	r2, [r7, #8]
 8000864:	f64f 03ff 	movw	r3, #63743	; 0xf8ff
 8000868:	4013      	ands	r3, r2
 800086a:	60bb      	str	r3, [r7, #8]
  reg_value  =  (reg_value                                   |
                ((uint32_t)0x5FAUL << SCB_AIRCR_VECTKEY_Pos) |
                (PriorityGroupTmp << SCB_AIRCR_PRIGROUP_Pos)  );              /* Insert write key and priority group */
 800086c:	68fb      	ldr	r3, [r7, #12]
 800086e:	021a      	lsls	r2, r3, #8
                ((uint32_t)0x5FAUL << SCB_AIRCR_VECTKEY_Pos) |
 8000870:	68bb      	ldr	r3, [r7, #8]
 8000872:	431a      	orrs	r2, r3
  reg_value  =  (reg_value                                   |
 8000874:	4b06      	ldr	r3, [pc, #24]	; (8000890 <__NVIC_SetPriorityGrouping+0x44>)
 8000876:	4313      	orrs	r3, r2
 8000878:	60bb      	str	r3, [r7, #8]
  SCB->AIRCR =  reg_value;
 800087a:	4a04      	ldr	r2, [pc, #16]	; (800088c <__NVIC_SetPriorityGrouping+0x40>)
 800087c:	68bb      	ldr	r3, [r7, #8]
 800087e:	60d3      	str	r3, [r2, #12]
}
 8000880:	bf00      	nop
 8000882:	3714      	adds	r7, #20
 8000884:	46bd      	mov	sp, r7
 8000886:	f85d 7b04 	ldr.w	r7, [sp], #4
 800088a:	4770      	bx	lr
 800088c:	e000ed00 	.word	0xe000ed00
 8000890:	05fa0000 	.word	0x05fa0000

08000894 <__NVIC_GetPriorityGrouping>:
  \brief   Get Priority Grouping
  \details Reads the priority grouping field from the NVIC Interrupt Controller.
  \return                Priority grouping field (SCB->AIRCR [10:8] PRIGROUP field).
 */
__STATIC_INLINE uint32_t __NVIC_GetPriorityGrouping(void)
{
 8000894:	b480      	push	{r7}
 8000896:	af00      	add	r7, sp, #0
  return ((uint32_t)((SCB->AIRCR & SCB_AIRCR_PRIGROUP_Msk) >> SCB_AIRCR_PRIGROUP_Pos));
 8000898:	4b04      	ldr	r3, [pc, #16]	; (80008ac <__NVIC_GetPriorityGrouping+0x18>)
 800089a:	68db      	ldr	r3, [r3, #12]
 800089c:	0a1b      	lsrs	r3, r3, #8
 800089e:	f003 0307 	and.w	r3, r3, #7
}
 80008a2:	4618      	mov	r0, r3
 80008a4:	46bd      	mov	sp, r7
 80008a6:	f85d 7b04 	ldr.w	r7, [sp], #4
 80008aa:	4770      	bx	lr
 80008ac:	e000ed00 	.word	0xe000ed00

080008b0 <__NVIC_SetPriority>:
  \param [in]      IRQn  Interrupt number.
  \param [in]  priority  Priority to set.
  \note    The priority cannot be set for every processor exception.
 */
__STATIC_INLINE void __NVIC_SetPriority(IRQn_Type IRQn, uint32_t priority)
{
 80008b0:	b480      	push	{r7}
 80008b2:	b083      	sub	sp, #12
 80008b4:	af00      	add	r7, sp, #0
 80008b6:	4603      	mov	r3, r0
 80008b8:	6039      	str	r1, [r7, #0]
 80008ba:	71fb      	strb	r3, [r7, #7]
  if ((int32_t)(IRQn) >= 0)
 80008bc:	f997 3007 	ldrsb.w	r3, [r7, #7]
 80008c0:	2b00      	cmp	r3, #0
 80008c2:	db0a      	blt.n	80008da <__NVIC_SetPriority+0x2a>
  {
    NVIC->IP[((uint32_t)IRQn)]                = (uint8_t)((priority << (8U - __NVIC_PRIO_BITS)) & (uint32_t)0xFFUL);
 80008c4:	683b      	ldr	r3, [r7, #0]
 80008c6:	b2da      	uxtb	r2, r3
 80008c8:	490c      	ldr	r1, [pc, #48]	; (80008fc <__NVIC_SetPriority+0x4c>)
 80008ca:	f997 3007 	ldrsb.w	r3, [r7, #7]
 80008ce:	0112      	lsls	r2, r2, #4
 80008d0:	b2d2      	uxtb	r2, r2
 80008d2:	440b      	add	r3, r1
 80008d4:	f883 2300 	strb.w	r2, [r3, #768]	; 0x300
  }
  else
  {
    SCB->SHPR[(((uint32_t)IRQn) & 0xFUL)-4UL] = (uint8_t)((priority << (8U - __NVIC_PRIO_BITS)) & (uint32_t)0xFFUL);
  }
}
 80008d8:	e00a      	b.n	80008f0 <__NVIC_SetPriority+0x40>
    SCB->SHPR[(((uint32_t)IRQn) & 0xFUL)-4UL] = (uint8_t)((priority << (8U - __NVIC_PRIO_BITS)) & (uint32_t)0xFFUL);
 80008da:	683b      	ldr	r3, [r7, #0]
 80008dc:	b2da      	uxtb	r2, r3
 80008de:	4908      	ldr	r1, [pc, #32]	; (8000900 <__NVIC_SetPriority+0x50>)
 80008e0:	79fb      	ldrb	r3, [r7, #7]
 80008e2:	f003 030f 	and.w	r3, r3, #15
 80008e6:	3b04      	subs	r3, #4
 80008e8:	0112      	lsls	r2, r2, #4
 80008ea:	b2d2      	uxtb	r2, r2
 80008ec:	440b      	add	r3, r1
 80008ee:	761a      	strb	r2, [r3, #24]
}
 80008f0:	bf00      	nop
 80008f2:	370c      	adds	r7, #12
 80008f4:	46bd      	mov	sp, r7
 80008f6:	f85d 7b04 	ldr.w	r7, [sp], #4
 80008fa:	4770      	bx	lr
 80008fc:	e000e100 	.word	0xe000e100
 8000900:	e000ed00 	.word	0xe000ed00

08000904 <NVIC_EncodePriority>:
  \param [in]   PreemptPriority  Preemptive priority value (starting from 0).
  \param [in]       SubPriority  Subpriority value (starting from 0).
  \return                        Encoded priority. Value can be used in the function \ref NVIC_SetPriority().
 */
__STATIC_INLINE uint32_t NVIC_EncodePriority (uint32_t PriorityGroup, uint32_t PreemptPriority, uint32_t SubPriority)
{
 8000904:	b480      	push	{r7}
 8000906:	b089      	sub	sp, #36	; 0x24
 8000908:	af00      	add	r7, sp, #0
 800090a:	60f8      	str	r0, [r7, #12]
 800090c:	60b9      	str	r1, [r7, #8]
 800090e:	607a      	str	r2, [r7, #4]
  uint32_t PriorityGroupTmp = (PriorityGroup & (uint32_t)0x07UL);   /* only values 0..7 are used          */
 8000910:	68fb      	ldr	r3, [r7, #12]
 8000912:	f003 0307 	and.w	r3, r3, #7
 8000916:	61fb      	str	r3, [r7, #28]
  uint32_t PreemptPriorityBits;
  uint32_t SubPriorityBits;

  PreemptPriorityBits = ((7UL - PriorityGroupTmp) > (uint32_t)(__NVIC_PRIO_BITS)) ? (uint32_t)(__NVIC_PRIO_BITS) : (uint32_t)(7UL - PriorityGroupTmp);
 8000918:	69fb      	ldr	r3, [r7, #28]
 800091a:	f1c3 0307 	rsb	r3, r3, #7
 800091e:	2b04      	cmp	r3, #4
 8000920:	bf28      	it	cs
 8000922:	2304      	movcs	r3, #4
 8000924:	61bb      	str	r3, [r7, #24]
  SubPriorityBits     = ((PriorityGroupTmp + (uint32_t)(__NVIC_PRIO_BITS)) < (uint32_t)7UL) ? (uint32_t)0UL : (uint32_t)((PriorityGroupTmp - 7UL) + (uint32_t)(__NVIC_PRIO_BITS));
 8000926:	69fb      	ldr	r3, [r7, #28]
 8000928:	3304      	adds	r3, #4
 800092a:	2b06      	cmp	r3, #6
 800092c:	d902      	bls.n	8000934 <NVIC_EncodePriority+0x30>
 800092e:	69fb      	ldr	r3, [r7, #28]
 8000930:	3b03      	subs	r3, #3
 8000932:	e000      	b.n	8000936 <NVIC_EncodePriority+0x32>
 8000934:	2300      	movs	r3, #0
 8000936:	617b      	str	r3, [r7, #20]

  return (
           ((PreemptPriority & (uint32_t)((1UL << (PreemptPriorityBits)) - 1UL)) << SubPriorityBits) |
 8000938:	f04f 32ff 	mov.w	r2, #4294967295
 800093c:	69bb      	ldr	r3, [r7, #24]
 800093e:	fa02 f303 	lsl.w	r3, r2, r3
 8000942:	43da      	mvns	r2, r3
 8000944:	68bb      	ldr	r3, [r7, #8]
 8000946:	401a      	ands	r2, r3
 8000948:	697b      	ldr	r3, [r7, #20]
 800094a:	409a      	lsls	r2, r3
           ((SubPriority     & (uint32_t)((1UL << (SubPriorityBits    )) - 1UL)))
 800094c:	f04f 31ff 	mov.w	r1, #4294967295
 8000950:	697b      	ldr	r3, [r7, #20]
 8000952:	fa01 f303 	lsl.w	r3, r1, r3
 8000956:	43d9      	mvns	r1, r3
 8000958:	687b      	ldr	r3, [r7, #4]
 800095a:	400b      	ands	r3, r1
           ((PreemptPriority & (uint32_t)((1UL << (PreemptPriorityBits)) - 1UL)) << SubPriorityBits) |
 800095c:	4313      	orrs	r3, r2
         );
}
 800095e:	4618      	mov	r0, r3
 8000960:	3724      	adds	r7, #36	; 0x24
 8000962:	46bd      	mov	sp, r7
 8000964:	f85d 7b04 	ldr.w	r7, [sp], #4
 8000968:	4770      	bx	lr
	...

0800096c <SysTick_Config>:
  \note    When the variable <b>__Vendor_SysTickConfig</b> is set to 1, then the
           function <b>SysTick_Config</b> is not included. In this case, the file <b><i>device</i>.h</b>
           must contain a vendor-specific implementation of this function.
 */
__STATIC_INLINE uint32_t SysTick_Config(uint32_t ticks)
{
 800096c:	b580      	push	{r7, lr}
 800096e:	b082      	sub	sp, #8
 8000970:	af00      	add	r7, sp, #0
 8000972:	6078      	str	r0, [r7, #4]
  if ((ticks - 1UL) > SysTick_LOAD_RELOAD_Msk)
 8000974:	687b      	ldr	r3, [r7, #4]
 8000976:	3b01      	subs	r3, #1
 8000978:	f1b3 7f80 	cmp.w	r3, #16777216	; 0x1000000
 800097c:	d301      	bcc.n	8000982 <SysTick_Config+0x16>
  {
    return (1UL);                                                   /* Reload value impossible */
 800097e:	2301      	movs	r3, #1
 8000980:	e00f      	b.n	80009a2 <SysTick_Config+0x36>
  }

  SysTick->LOAD  = (uint32_t)(ticks - 1UL);                         /* set reload register */
 8000982:	4a0a      	ldr	r2, [pc, #40]	; (80009ac <SysTick_Config+0x40>)
 8000984:	687b      	ldr	r3, [r7, #4]
 8000986:	3b01      	subs	r3, #1
 8000988:	6053      	str	r3, [r2, #4]
  NVIC_SetPriority (SysTick_IRQn, (1UL << __NVIC_PRIO_BITS) - 1UL); /* set Priority for Systick Interrupt */
 800098a:	210f      	movs	r1, #15
 800098c:	f04f 30ff 	mov.w	r0, #4294967295
 8000990:	f7ff ff8e 	bl	80008b0 <__NVIC_SetPriority>
  SysTick->VAL   = 0UL;                                             /* Load the SysTick Counter Value */
 8000994:	4b05      	ldr	r3, [pc, #20]	; (80009ac <SysTick_Config+0x40>)
 8000996:	2200      	movs	r2, #0
 8000998:	609a      	str	r2, [r3, #8]
  SysTick->CTRL  = SysTick_CTRL_CLKSOURCE_Msk |
 800099a:	4b04      	ldr	r3, [pc, #16]	; (80009ac <SysTick_Config+0x40>)
 800099c:	2207      	movs	r2, #7
 800099e:	601a      	str	r2, [r3, #0]
                   SysTick_CTRL_TICKINT_Msk   |
                   SysTick_CTRL_ENABLE_Msk;                         /* Enable SysTick IRQ and SysTick Timer */
  return (0UL);                                                     /* Function successful */
 80009a0:	2300      	movs	r3, #0
}
 80009a2:	4618      	mov	r0, r3
 80009a4:	3708      	adds	r7, #8
 80009a6:	46bd      	mov	sp, r7
 80009a8:	bd80      	pop	{r7, pc}
 80009aa:	bf00      	nop
 80009ac:	e000e010 	.word	0xe000e010

080009b0 <HAL_NVIC_SetPriorityGrouping>:
  * @note   When the NVIC_PriorityGroup_0 is selected, IRQ preemption is no more possible. 
  *         The pending IRQ priority will be managed only by the subpriority. 
  * @retval None
  */
void HAL_NVIC_SetPriorityGrouping(uint32_t PriorityGroup)
{
 80009b0:	b580      	push	{r7, lr}
 80009b2:	b082      	sub	sp, #8
 80009b4:	af00      	add	r7, sp, #0
 80009b6:	6078      	str	r0, [r7, #4]
  /* Check the parameters */
  assert_param(IS_NVIC_PRIORITY_GROUP(PriorityGroup));
  
  /* Set the PRIGROUP[10:8] bits according to the PriorityGroup parameter value */
  NVIC_SetPriorityGrouping(PriorityGroup);
 80009b8:	6878      	ldr	r0, [r7, #4]
 80009ba:	f7ff ff47 	bl	800084c <__NVIC_SetPriorityGrouping>
}
 80009be:	bf00      	nop
 80009c0:	3708      	adds	r7, #8
 80009c2:	46bd      	mov	sp, r7
 80009c4:	bd80      	pop	{r7, pc}

080009c6 <HAL_NVIC_SetPriority>:
  *         This parameter can be a value between 0 and 15
  *         A lower priority value indicates a higher priority.          
  * @retval None
  */
void HAL_NVIC_SetPriority(IRQn_Type IRQn, uint32_t PreemptPriority, uint32_t SubPriority)
{ 
 80009c6:	b580      	push	{r7, lr}
 80009c8:	b086      	sub	sp, #24
 80009ca:	af00      	add	r7, sp, #0
 80009cc:	4603      	mov	r3, r0
 80009ce:	60b9      	str	r1, [r7, #8]
 80009d0:	607a      	str	r2, [r7, #4]
 80009d2:	73fb      	strb	r3, [r7, #15]
  uint32_t prioritygroup = 0x00;
 80009d4:	2300      	movs	r3, #0
 80009d6:	617b      	str	r3, [r7, #20]
  
  /* Check the parameters */
  assert_param(IS_NVIC_SUB_PRIORITY(SubPriority));
  assert_param(IS_NVIC_PREEMPTION_PRIORITY(PreemptPriority));
  
  prioritygroup = NVIC_GetPriorityGrouping();
 80009d8:	f7ff ff5c 	bl	8000894 <__NVIC_GetPriorityGrouping>
 80009dc:	6178      	str	r0, [r7, #20]
  
  NVIC_SetPriority(IRQn, NVIC_EncodePriority(prioritygroup, PreemptPriority, SubPriority));
 80009de:	687a      	ldr	r2, [r7, #4]
 80009e0:	68b9      	ldr	r1, [r7, #8]
 80009e2:	6978      	ldr	r0, [r7, #20]
 80009e4:	f7ff ff8e 	bl	8000904 <NVIC_EncodePriority>
 80009e8:	4602      	mov	r2, r0
 80009ea:	f997 300f 	ldrsb.w	r3, [r7, #15]
 80009ee:	4611      	mov	r1, r2
 80009f0:	4618      	mov	r0, r3
 80009f2:	f7ff ff5d 	bl	80008b0 <__NVIC_SetPriority>
}
 80009f6:	bf00      	nop
 80009f8:	3718      	adds	r7, #24
 80009fa:	46bd      	mov	sp, r7
 80009fc:	bd80      	pop	{r7, pc}

080009fe <HAL_SYSTICK_Config>:
  * @param  TicksNumb Specifies the ticks Number of ticks between two interrupts.
  * @retval status:  - 0  Function succeeded.
  *                  - 1  Function failed.
  */
uint32_t HAL_SYSTICK_Config(uint32_t TicksNumb)
{
 80009fe:	b580      	push	{r7, lr}
 8000a00:	b082      	sub	sp, #8
 8000a02:	af00      	add	r7, sp, #0
 8000a04:	6078      	str	r0, [r7, #4]
   return SysTick_Config(TicksNumb);
 8000a06:	6878      	ldr	r0, [r7, #4]
 8000a08:	f7ff ffb0 	bl	800096c <SysTick_Config>
 8000a0c:	4603      	mov	r3, r0
}
 8000a0e:	4618      	mov	r0, r3
 8000a10:	3708      	adds	r7, #8
 8000a12:	46bd      	mov	sp, r7
 8000a14:	bd80      	pop	{r7, pc}
	...

08000a18 <HAL_PWREx_EnableOverDrive>:
  *         During the Over-drive switch activation, no peripheral clocks should be enabled.   
  *         The peripheral clocks must be enabled once the Over-drive mode is activated.   
  * @retval HAL status
  */
HAL_StatusTypeDef HAL_PWREx_EnableOverDrive(void)
{
 8000a18:	b580      	push	{r7, lr}
 8000a1a:	b082      	sub	sp, #8
 8000a1c:	af00      	add	r7, sp, #0
  uint32_t tickstart = 0;
 8000a1e:	2300      	movs	r3, #0
 8000a20:	607b      	str	r3, [r7, #4]

  __HAL_RCC_PWR_CLK_ENABLE();
 8000a22:	4b23      	ldr	r3, [pc, #140]	; (8000ab0 <HAL_PWREx_EnableOverDrive+0x98>)
 8000a24:	6c1b      	ldr	r3, [r3, #64]	; 0x40
 8000a26:	4a22      	ldr	r2, [pc, #136]	; (8000ab0 <HAL_PWREx_EnableOverDrive+0x98>)
 8000a28:	f043 5380 	orr.w	r3, r3, #268435456	; 0x10000000
 8000a2c:	6413      	str	r3, [r2, #64]	; 0x40
 8000a2e:	4b20      	ldr	r3, [pc, #128]	; (8000ab0 <HAL_PWREx_EnableOverDrive+0x98>)
 8000a30:	6c1b      	ldr	r3, [r3, #64]	; 0x40
 8000a32:	f003 5380 	and.w	r3, r3, #268435456	; 0x10000000
 8000a36:	603b      	str	r3, [r7, #0]
 8000a38:	683b      	ldr	r3, [r7, #0]
  
  /* Enable the Over-drive to extend the clock frequency to 216 MHz */
  __HAL_PWR_OVERDRIVE_ENABLE();
 8000a3a:	4b1e      	ldr	r3, [pc, #120]	; (8000ab4 <HAL_PWREx_EnableOverDrive+0x9c>)
 8000a3c:	681b      	ldr	r3, [r3, #0]
 8000a3e:	4a1d      	ldr	r2, [pc, #116]	; (8000ab4 <HAL_PWREx_EnableOverDrive+0x9c>)
 8000a40:	f443 3380 	orr.w	r3, r3, #65536	; 0x10000
 8000a44:	6013      	str	r3, [r2, #0]

  /* Get tick */
  tickstart = HAL_GetTick();
 8000a46:	f7ff fef5 	bl	8000834 <HAL_GetTick>
 8000a4a:	6078      	str	r0, [r7, #4]

  while(!__HAL_PWR_GET_FLAG(PWR_FLAG_ODRDY))
 8000a4c:	e009      	b.n	8000a62 <HAL_PWREx_EnableOverDrive+0x4a>
  {
    if((HAL_GetTick() - tickstart ) > PWR_OVERDRIVE_TIMEOUT_VALUE)
 8000a4e:	f7ff fef1 	bl	8000834 <HAL_GetTick>
 8000a52:	4602      	mov	r2, r0
 8000a54:	687b      	ldr	r3, [r7, #4]
 8000a56:	1ad3      	subs	r3, r2, r3
 8000a58:	f5b3 7f7a 	cmp.w	r3, #1000	; 0x3e8
 8000a5c:	d901      	bls.n	8000a62 <HAL_PWREx_EnableOverDrive+0x4a>
    {
      return HAL_TIMEOUT;
 8000a5e:	2303      	movs	r3, #3
 8000a60:	e022      	b.n	8000aa8 <HAL_PWREx_EnableOverDrive+0x90>
  while(!__HAL_PWR_GET_FLAG(PWR_FLAG_ODRDY))
 8000a62:	4b14      	ldr	r3, [pc, #80]	; (8000ab4 <HAL_PWREx_EnableOverDrive+0x9c>)
 8000a64:	685b      	ldr	r3, [r3, #4]
 8000a66:	f403 3380 	and.w	r3, r3, #65536	; 0x10000
 8000a6a:	f5b3 3f80 	cmp.w	r3, #65536	; 0x10000
 8000a6e:	d1ee      	bne.n	8000a4e <HAL_PWREx_EnableOverDrive+0x36>
    }
  }
  
  /* Enable the Over-drive switch */
  __HAL_PWR_OVERDRIVESWITCHING_ENABLE();
 8000a70:	4b10      	ldr	r3, [pc, #64]	; (8000ab4 <HAL_PWREx_EnableOverDrive+0x9c>)
 8000a72:	681b      	ldr	r3, [r3, #0]
 8000a74:	4a0f      	ldr	r2, [pc, #60]	; (8000ab4 <HAL_PWREx_EnableOverDrive+0x9c>)
 8000a76:	f443 3300 	orr.w	r3, r3, #131072	; 0x20000
 8000a7a:	6013      	str	r3, [r2, #0]

  /* Get tick */
  tickstart = HAL_GetTick();
 8000a7c:	f7ff feda 	bl	8000834 <HAL_GetTick>
 8000a80:	6078      	str	r0, [r7, #4]

  while(!__HAL_PWR_GET_FLAG(PWR_FLAG_ODSWRDY))
 8000a82:	e009      	b.n	8000a98 <HAL_PWREx_EnableOverDrive+0x80>
  {
    if((HAL_GetTick() - tickstart ) > PWR_OVERDRIVE_TIMEOUT_VALUE)
 8000a84:	f7ff fed6 	bl	8000834 <HAL_GetTick>
 8000a88:	4602      	mov	r2, r0
 8000a8a:	687b      	ldr	r3, [r7, #4]
 8000a8c:	1ad3      	subs	r3, r2, r3
 8000a8e:	f5b3 7f7a 	cmp.w	r3, #1000	; 0x3e8
 8000a92:	d901      	bls.n	8000a98 <HAL_PWREx_EnableOverDrive+0x80>
    {
      return HAL_TIMEOUT;
 8000a94:	2303      	movs	r3, #3
 8000a96:	e007      	b.n	8000aa8 <HAL_PWREx_EnableOverDrive+0x90>
  while(!__HAL_PWR_GET_FLAG(PWR_FLAG_ODSWRDY))
 8000a98:	4b06      	ldr	r3, [pc, #24]	; (8000ab4 <HAL_PWREx_EnableOverDrive+0x9c>)
 8000a9a:	685b      	ldr	r3, [r3, #4]
 8000a9c:	f403 3300 	and.w	r3, r3, #131072	; 0x20000
 8000aa0:	f5b3 3f00 	cmp.w	r3, #131072	; 0x20000
 8000aa4:	d1ee      	bne.n	8000a84 <HAL_PWREx_EnableOverDrive+0x6c>
    }
  } 
  return HAL_OK;
 8000aa6:	2300      	movs	r3, #0
}
 8000aa8:	4618      	mov	r0, r3
 8000aaa:	3708      	adds	r7, #8
 8000aac:	46bd      	mov	sp, r7
 8000aae:	bd80      	pop	{r7, pc}
 8000ab0:	40023800 	.word	0x40023800
 8000ab4:	40007000 	.word	0x40007000

08000ab8 <HAL_RCC_OscConfig>:
  *         supported by this function. User should request a transition to HSE Off
  *         first and then HSE On or HSE Bypass.
  * @retval HAL status
  */
HAL_StatusTypeDef HAL_RCC_OscConfig(RCC_OscInitTypeDef  *RCC_OscInitStruct)
{
 8000ab8:	b580      	push	{r7, lr}
 8000aba:	b086      	sub	sp, #24
 8000abc:	af00      	add	r7, sp, #0
 8000abe:	6078      	str	r0, [r7, #4]
  uint32_t tickstart;
  uint32_t pll_config;
  FlagStatus pwrclkchanged = RESET;
 8000ac0:	2300      	movs	r3, #0
 8000ac2:	75fb      	strb	r3, [r7, #23]

  /* Check Null pointer */
  if (RCC_OscInitStruct == NULL)
 8000ac4:	687b      	ldr	r3, [r7, #4]
 8000ac6:	2b00      	cmp	r3, #0
 8000ac8:	d101      	bne.n	8000ace <HAL_RCC_OscConfig+0x16>
  {
    return HAL_ERROR;
 8000aca:	2301      	movs	r3, #1
 8000acc:	e29b      	b.n	8001006 <HAL_RCC_OscConfig+0x54e>

  /* Check the parameters */
  assert_param(IS_RCC_OSCILLATORTYPE(RCC_OscInitStruct->OscillatorType));

  /*------------------------------- HSE Configuration ------------------------*/
  if (((RCC_OscInitStruct->OscillatorType) & RCC_OSCILLATORTYPE_HSE) == RCC_OSCILLATORTYPE_HSE)
 8000ace:	687b      	ldr	r3, [r7, #4]
 8000ad0:	681b      	ldr	r3, [r3, #0]
 8000ad2:	f003 0301 	and.w	r3, r3, #1
 8000ad6:	2b00      	cmp	r3, #0
 8000ad8:	f000 8087 	beq.w	8000bea <HAL_RCC_OscConfig+0x132>
  {
    /* Check the parameters */
    assert_param(IS_RCC_HSE(RCC_OscInitStruct->HSEState));
    /* When the HSE is used as system clock or clock source for PLL, It can not be disabled */
    if ((__HAL_RCC_GET_SYSCLK_SOURCE() == RCC_SYSCLKSOURCE_STATUS_HSE)
 8000adc:	4b96      	ldr	r3, [pc, #600]	; (8000d38 <HAL_RCC_OscConfig+0x280>)
 8000ade:	689b      	ldr	r3, [r3, #8]
 8000ae0:	f003 030c 	and.w	r3, r3, #12
 8000ae4:	2b04      	cmp	r3, #4
 8000ae6:	d00c      	beq.n	8000b02 <HAL_RCC_OscConfig+0x4a>
        || ((__HAL_RCC_GET_SYSCLK_SOURCE() == RCC_SYSCLKSOURCE_STATUS_PLLCLK) && ((RCC->PLLCFGR & RCC_PLLCFGR_PLLSRC) == RCC_PLLCFGR_PLLSRC_HSE)))
 8000ae8:	4b93      	ldr	r3, [pc, #588]	; (8000d38 <HAL_RCC_OscConfig+0x280>)
 8000aea:	689b      	ldr	r3, [r3, #8]
 8000aec:	f003 030c 	and.w	r3, r3, #12
 8000af0:	2b08      	cmp	r3, #8
 8000af2:	d112      	bne.n	8000b1a <HAL_RCC_OscConfig+0x62>
 8000af4:	4b90      	ldr	r3, [pc, #576]	; (8000d38 <HAL_RCC_OscConfig+0x280>)
 8000af6:	685b      	ldr	r3, [r3, #4]
 8000af8:	f403 0380 	and.w	r3, r3, #4194304	; 0x400000
 8000afc:	f5b3 0f80 	cmp.w	r3, #4194304	; 0x400000
 8000b00:	d10b      	bne.n	8000b1a <HAL_RCC_OscConfig+0x62>
    {
      if ((__HAL_RCC_GET_FLAG(RCC_FLAG_HSERDY) != RESET) && (RCC_OscInitStruct->HSEState == RCC_HSE_OFF))
 8000b02:	4b8d      	ldr	r3, [pc, #564]	; (8000d38 <HAL_RCC_OscConfig+0x280>)
 8000b04:	681b      	ldr	r3, [r3, #0]
 8000b06:	f403 3300 	and.w	r3, r3, #131072	; 0x20000
 8000b0a:	2b00      	cmp	r3, #0
 8000b0c:	d06c      	beq.n	8000be8 <HAL_RCC_OscConfig+0x130>
 8000b0e:	687b      	ldr	r3, [r7, #4]
 8000b10:	685b      	ldr	r3, [r3, #4]
 8000b12:	2b00      	cmp	r3, #0
 8000b14:	d168      	bne.n	8000be8 <HAL_RCC_OscConfig+0x130>
      {
        return HAL_ERROR;
 8000b16:	2301      	movs	r3, #1
 8000b18:	e275      	b.n	8001006 <HAL_RCC_OscConfig+0x54e>
      }
    }
    else
    {
      /* Set the new HSE configuration ---------------------------------------*/
      __HAL_RCC_HSE_CONFIG(RCC_OscInitStruct->HSEState);
 8000b1a:	687b      	ldr	r3, [r7, #4]
 8000b1c:	685b      	ldr	r3, [r3, #4]
 8000b1e:	f5b3 3f80 	cmp.w	r3, #65536	; 0x10000
 8000b22:	d106      	bne.n	8000b32 <HAL_RCC_OscConfig+0x7a>
 8000b24:	4b84      	ldr	r3, [pc, #528]	; (8000d38 <HAL_RCC_OscConfig+0x280>)
 8000b26:	681b      	ldr	r3, [r3, #0]
 8000b28:	4a83      	ldr	r2, [pc, #524]	; (8000d38 <HAL_RCC_OscConfig+0x280>)
 8000b2a:	f443 3380 	orr.w	r3, r3, #65536	; 0x10000
 8000b2e:	6013      	str	r3, [r2, #0]
 8000b30:	e02e      	b.n	8000b90 <HAL_RCC_OscConfig+0xd8>
 8000b32:	687b      	ldr	r3, [r7, #4]
 8000b34:	685b      	ldr	r3, [r3, #4]
 8000b36:	2b00      	cmp	r3, #0
 8000b38:	d10c      	bne.n	8000b54 <HAL_RCC_OscConfig+0x9c>
 8000b3a:	4b7f      	ldr	r3, [pc, #508]	; (8000d38 <HAL_RCC_OscConfig+0x280>)
 8000b3c:	681b      	ldr	r3, [r3, #0]
 8000b3e:	4a7e      	ldr	r2, [pc, #504]	; (8000d38 <HAL_RCC_OscConfig+0x280>)
 8000b40:	f423 3380 	bic.w	r3, r3, #65536	; 0x10000
 8000b44:	6013      	str	r3, [r2, #0]
 8000b46:	4b7c      	ldr	r3, [pc, #496]	; (8000d38 <HAL_RCC_OscConfig+0x280>)
 8000b48:	681b      	ldr	r3, [r3, #0]
 8000b4a:	4a7b      	ldr	r2, [pc, #492]	; (8000d38 <HAL_RCC_OscConfig+0x280>)
 8000b4c:	f423 2380 	bic.w	r3, r3, #262144	; 0x40000
 8000b50:	6013      	str	r3, [r2, #0]
 8000b52:	e01d      	b.n	8000b90 <HAL_RCC_OscConfig+0xd8>
 8000b54:	687b      	ldr	r3, [r7, #4]
 8000b56:	685b      	ldr	r3, [r3, #4]
 8000b58:	f5b3 2fa0 	cmp.w	r3, #327680	; 0x50000
 8000b5c:	d10c      	bne.n	8000b78 <HAL_RCC_OscConfig+0xc0>
 8000b5e:	4b76      	ldr	r3, [pc, #472]	; (8000d38 <HAL_RCC_OscConfig+0x280>)
 8000b60:	681b      	ldr	r3, [r3, #0]
 8000b62:	4a75      	ldr	r2, [pc, #468]	; (8000d38 <HAL_RCC_OscConfig+0x280>)
 8000b64:	f443 2380 	orr.w	r3, r3, #262144	; 0x40000
 8000b68:	6013      	str	r3, [r2, #0]
 8000b6a:	4b73      	ldr	r3, [pc, #460]	; (8000d38 <HAL_RCC_OscConfig+0x280>)
 8000b6c:	681b      	ldr	r3, [r3, #0]
 8000b6e:	4a72      	ldr	r2, [pc, #456]	; (8000d38 <HAL_RCC_OscConfig+0x280>)
 8000b70:	f443 3380 	orr.w	r3, r3, #65536	; 0x10000
 8000b74:	6013      	str	r3, [r2, #0]
 8000b76:	e00b      	b.n	8000b90 <HAL_RCC_OscConfig+0xd8>
 8000b78:	4b6f      	ldr	r3, [pc, #444]	; (8000d38 <HAL_RCC_OscConfig+0x280>)
 8000b7a:	681b      	ldr	r3, [r3, #0]
 8000b7c:	4a6e      	ldr	r2, [pc, #440]	; (8000d38 <HAL_RCC_OscConfig+0x280>)
 8000b7e:	f423 3380 	bic.w	r3, r3, #65536	; 0x10000
 8000b82:	6013      	str	r3, [r2, #0]
 8000b84:	4b6c      	ldr	r3, [pc, #432]	; (8000d38 <HAL_RCC_OscConfig+0x280>)
 8000b86:	681b      	ldr	r3, [r3, #0]
 8000b88:	4a6b      	ldr	r2, [pc, #428]	; (8000d38 <HAL_RCC_OscConfig+0x280>)
 8000b8a:	f423 2380 	bic.w	r3, r3, #262144	; 0x40000
 8000b8e:	6013      	str	r3, [r2, #0]

      /* Check the HSE State */
      if (RCC_OscInitStruct->HSEState != RCC_HSE_OFF)
 8000b90:	687b      	ldr	r3, [r7, #4]
 8000b92:	685b      	ldr	r3, [r3, #4]
 8000b94:	2b00      	cmp	r3, #0
 8000b96:	d013      	beq.n	8000bc0 <HAL_RCC_OscConfig+0x108>
      {
        /* Get Start Tick*/
        tickstart = HAL_GetTick();
 8000b98:	f7ff fe4c 	bl	8000834 <HAL_GetTick>
 8000b9c:	6138      	str	r0, [r7, #16]

        /* Wait till HSE is ready */
        while (__HAL_RCC_GET_FLAG(RCC_FLAG_HSERDY) == RESET)
 8000b9e:	e008      	b.n	8000bb2 <HAL_RCC_OscConfig+0xfa>
        {
          if ((HAL_GetTick() - tickstart) > HSE_TIMEOUT_VALUE)
 8000ba0:	f7ff fe48 	bl	8000834 <HAL_GetTick>
 8000ba4:	4602      	mov	r2, r0
 8000ba6:	693b      	ldr	r3, [r7, #16]
 8000ba8:	1ad3      	subs	r3, r2, r3
 8000baa:	2b64      	cmp	r3, #100	; 0x64
 8000bac:	d901      	bls.n	8000bb2 <HAL_RCC_OscConfig+0xfa>
          {
            return HAL_TIMEOUT;
 8000bae:	2303      	movs	r3, #3
 8000bb0:	e229      	b.n	8001006 <HAL_RCC_OscConfig+0x54e>
        while (__HAL_RCC_GET_FLAG(RCC_FLAG_HSERDY) == RESET)
 8000bb2:	4b61      	ldr	r3, [pc, #388]	; (8000d38 <HAL_RCC_OscConfig+0x280>)
 8000bb4:	681b      	ldr	r3, [r3, #0]
 8000bb6:	f403 3300 	and.w	r3, r3, #131072	; 0x20000
 8000bba:	2b00      	cmp	r3, #0
 8000bbc:	d0f0      	beq.n	8000ba0 <HAL_RCC_OscConfig+0xe8>
 8000bbe:	e014      	b.n	8000bea <HAL_RCC_OscConfig+0x132>
        }
      }
      else
      {
        /* Get Start Tick*/
        tickstart = HAL_GetTick();
 8000bc0:	f7ff fe38 	bl	8000834 <HAL_GetTick>
 8000bc4:	6138      	str	r0, [r7, #16]

        /* Wait till HSE is bypassed or disabled */
        while (__HAL_RCC_GET_FLAG(RCC_FLAG_HSERDY) != RESET)
 8000bc6:	e008      	b.n	8000bda <HAL_RCC_OscConfig+0x122>
        {
          if ((HAL_GetTick() - tickstart) > HSE_TIMEOUT_VALUE)
 8000bc8:	f7ff fe34 	bl	8000834 <HAL_GetTick>
 8000bcc:	4602      	mov	r2, r0
 8000bce:	693b      	ldr	r3, [r7, #16]
 8000bd0:	1ad3      	subs	r3, r2, r3
 8000bd2:	2b64      	cmp	r3, #100	; 0x64
 8000bd4:	d901      	bls.n	8000bda <HAL_RCC_OscConfig+0x122>
          {
            return HAL_TIMEOUT;
 8000bd6:	2303      	movs	r3, #3
 8000bd8:	e215      	b.n	8001006 <HAL_RCC_OscConfig+0x54e>
        while (__HAL_RCC_GET_FLAG(RCC_FLAG_HSERDY) != RESET)
 8000bda:	4b57      	ldr	r3, [pc, #348]	; (8000d38 <HAL_RCC_OscConfig+0x280>)
 8000bdc:	681b      	ldr	r3, [r3, #0]
 8000bde:	f403 3300 	and.w	r3, r3, #131072	; 0x20000
 8000be2:	2b00      	cmp	r3, #0
 8000be4:	d1f0      	bne.n	8000bc8 <HAL_RCC_OscConfig+0x110>
 8000be6:	e000      	b.n	8000bea <HAL_RCC_OscConfig+0x132>
      if ((__HAL_RCC_GET_FLAG(RCC_FLAG_HSERDY) != RESET) && (RCC_OscInitStruct->HSEState == RCC_HSE_OFF))
 8000be8:	bf00      	nop
        }
      }
    }
  }
  /*----------------------------- HSI Configuration --------------------------*/
  if (((RCC_OscInitStruct->OscillatorType) & RCC_OSCILLATORTYPE_HSI) == RCC_OSCILLATORTYPE_HSI)
 8000bea:	687b      	ldr	r3, [r7, #4]
 8000bec:	681b      	ldr	r3, [r3, #0]
 8000bee:	f003 0302 	and.w	r3, r3, #2
 8000bf2:	2b00      	cmp	r3, #0
 8000bf4:	d069      	beq.n	8000cca <HAL_RCC_OscConfig+0x212>
    /* Check the parameters */
    assert_param(IS_RCC_HSI(RCC_OscInitStruct->HSIState));
    assert_param(IS_RCC_CALIBRATION_VALUE(RCC_OscInitStruct->HSICalibrationValue));

    /* Check if HSI is used as system clock or as PLL source when PLL is selected as system clock */
    if ((__HAL_RCC_GET_SYSCLK_SOURCE() == RCC_SYSCLKSOURCE_STATUS_HSI)
 8000bf6:	4b50      	ldr	r3, [pc, #320]	; (8000d38 <HAL_RCC_OscConfig+0x280>)
 8000bf8:	689b      	ldr	r3, [r3, #8]
 8000bfa:	f003 030c 	and.w	r3, r3, #12
 8000bfe:	2b00      	cmp	r3, #0
 8000c00:	d00b      	beq.n	8000c1a <HAL_RCC_OscConfig+0x162>
        || ((__HAL_RCC_GET_SYSCLK_SOURCE() == RCC_SYSCLKSOURCE_STATUS_PLLCLK) && ((RCC->PLLCFGR & RCC_PLLCFGR_PLLSRC) == RCC_PLLCFGR_PLLSRC_HSI)))
 8000c02:	4b4d      	ldr	r3, [pc, #308]	; (8000d38 <HAL_RCC_OscConfig+0x280>)
 8000c04:	689b      	ldr	r3, [r3, #8]
 8000c06:	f003 030c 	and.w	r3, r3, #12
 8000c0a:	2b08      	cmp	r3, #8
 8000c0c:	d11c      	bne.n	8000c48 <HAL_RCC_OscConfig+0x190>
 8000c0e:	4b4a      	ldr	r3, [pc, #296]	; (8000d38 <HAL_RCC_OscConfig+0x280>)
 8000c10:	685b      	ldr	r3, [r3, #4]
 8000c12:	f403 0380 	and.w	r3, r3, #4194304	; 0x400000
 8000c16:	2b00      	cmp	r3, #0
 8000c18:	d116      	bne.n	8000c48 <HAL_RCC_OscConfig+0x190>
    {
      /* When HSI is used as system clock it will not disabled */
      if ((__HAL_RCC_GET_FLAG(RCC_FLAG_HSIRDY) != RESET) && (RCC_OscInitStruct->HSIState != RCC_HSI_ON))
 8000c1a:	4b47      	ldr	r3, [pc, #284]	; (8000d38 <HAL_RCC_OscConfig+0x280>)
 8000c1c:	681b      	ldr	r3, [r3, #0]
 8000c1e:	f003 0302 	and.w	r3, r3, #2
 8000c22:	2b00      	cmp	r3, #0
 8000c24:	d005      	beq.n	8000c32 <HAL_RCC_OscConfig+0x17a>
 8000c26:	687b      	ldr	r3, [r7, #4]
 8000c28:	68db      	ldr	r3, [r3, #12]
 8000c2a:	2b01      	cmp	r3, #1
 8000c2c:	d001      	beq.n	8000c32 <HAL_RCC_OscConfig+0x17a>
      {
        return HAL_ERROR;
 8000c2e:	2301      	movs	r3, #1
 8000c30:	e1e9      	b.n	8001006 <HAL_RCC_OscConfig+0x54e>
      }
      /* Otherwise, just the calibration is allowed */
      else
      {
        /* Adjusts the Internal High Speed oscillator (HSI) calibration value.*/
        __HAL_RCC_HSI_CALIBRATIONVALUE_ADJUST(RCC_OscInitStruct->HSICalibrationValue);
 8000c32:	4b41      	ldr	r3, [pc, #260]	; (8000d38 <HAL_RCC_OscConfig+0x280>)
 8000c34:	681b      	ldr	r3, [r3, #0]
 8000c36:	f023 02f8 	bic.w	r2, r3, #248	; 0xf8
 8000c3a:	687b      	ldr	r3, [r7, #4]
 8000c3c:	691b      	ldr	r3, [r3, #16]
 8000c3e:	00db      	lsls	r3, r3, #3
 8000c40:	493d      	ldr	r1, [pc, #244]	; (8000d38 <HAL_RCC_OscConfig+0x280>)
 8000c42:	4313      	orrs	r3, r2
 8000c44:	600b      	str	r3, [r1, #0]
      if ((__HAL_RCC_GET_FLAG(RCC_FLAG_HSIRDY) != RESET) && (RCC_OscInitStruct->HSIState != RCC_HSI_ON))
 8000c46:	e040      	b.n	8000cca <HAL_RCC_OscConfig+0x212>
      }
    }
    else
    {
      /* Check the HSI State */
      if ((RCC_OscInitStruct->HSIState) != RCC_HSI_OFF)
 8000c48:	687b      	ldr	r3, [r7, #4]
 8000c4a:	68db      	ldr	r3, [r3, #12]
 8000c4c:	2b00      	cmp	r3, #0
 8000c4e:	d023      	beq.n	8000c98 <HAL_RCC_OscConfig+0x1e0>
      {
        /* Enable the Internal High Speed oscillator (HSI). */
        __HAL_RCC_HSI_ENABLE();
 8000c50:	4b39      	ldr	r3, [pc, #228]	; (8000d38 <HAL_RCC_OscConfig+0x280>)
 8000c52:	681b      	ldr	r3, [r3, #0]
 8000c54:	4a38      	ldr	r2, [pc, #224]	; (8000d38 <HAL_RCC_OscConfig+0x280>)
 8000c56:	f043 0301 	orr.w	r3, r3, #1
 8000c5a:	6013      	str	r3, [r2, #0]

        /* Get Start Tick*/
        tickstart = HAL_GetTick();
 8000c5c:	f7ff fdea 	bl	8000834 <HAL_GetTick>
 8000c60:	6138      	str	r0, [r7, #16]

        /* Wait till HSI is ready */
        while (__HAL_RCC_GET_FLAG(RCC_FLAG_HSIRDY) == RESET)
 8000c62:	e008      	b.n	8000c76 <HAL_RCC_OscConfig+0x1be>
        {
          if ((HAL_GetTick() - tickstart) > HSI_TIMEOUT_VALUE)
 8000c64:	f7ff fde6 	bl	8000834 <HAL_GetTick>
 8000c68:	4602      	mov	r2, r0
 8000c6a:	693b      	ldr	r3, [r7, #16]
 8000c6c:	1ad3      	subs	r3, r2, r3
 8000c6e:	2b02      	cmp	r3, #2
 8000c70:	d901      	bls.n	8000c76 <HAL_RCC_OscConfig+0x1be>
          {
            return HAL_TIMEOUT;
 8000c72:	2303      	movs	r3, #3
 8000c74:	e1c7      	b.n	8001006 <HAL_RCC_OscConfig+0x54e>
        while (__HAL_RCC_GET_FLAG(RCC_FLAG_HSIRDY) == RESET)
 8000c76:	4b30      	ldr	r3, [pc, #192]	; (8000d38 <HAL_RCC_OscConfig+0x280>)
 8000c78:	681b      	ldr	r3, [r3, #0]
 8000c7a:	f003 0302 	and.w	r3, r3, #2
 8000c7e:	2b00      	cmp	r3, #0
 8000c80:	d0f0      	beq.n	8000c64 <HAL_RCC_OscConfig+0x1ac>
          }
        }

        /* Adjusts the Internal High Speed oscillator (HSI) calibration value.*/
        __HAL_RCC_HSI_CALIBRATIONVALUE_ADJUST(RCC_OscInitStruct->HSICalibrationValue);
 8000c82:	4b2d      	ldr	r3, [pc, #180]	; (8000d38 <HAL_RCC_OscConfig+0x280>)
 8000c84:	681b      	ldr	r3, [r3, #0]
 8000c86:	f023 02f8 	bic.w	r2, r3, #248	; 0xf8
 8000c8a:	687b      	ldr	r3, [r7, #4]
 8000c8c:	691b      	ldr	r3, [r3, #16]
 8000c8e:	00db      	lsls	r3, r3, #3
 8000c90:	4929      	ldr	r1, [pc, #164]	; (8000d38 <HAL_RCC_OscConfig+0x280>)
 8000c92:	4313      	orrs	r3, r2
 8000c94:	600b      	str	r3, [r1, #0]
 8000c96:	e018      	b.n	8000cca <HAL_RCC_OscConfig+0x212>
      }
      else
      {
        /* Disable the Internal High Speed oscillator (HSI). */
        __HAL_RCC_HSI_DISABLE();
 8000c98:	4b27      	ldr	r3, [pc, #156]	; (8000d38 <HAL_RCC_OscConfig+0x280>)
 8000c9a:	681b      	ldr	r3, [r3, #0]
 8000c9c:	4a26      	ldr	r2, [pc, #152]	; (8000d38 <HAL_RCC_OscConfig+0x280>)
 8000c9e:	f023 0301 	bic.w	r3, r3, #1
 8000ca2:	6013      	str	r3, [r2, #0]

        /* Get Start Tick*/
        tickstart = HAL_GetTick();
 8000ca4:	f7ff fdc6 	bl	8000834 <HAL_GetTick>
 8000ca8:	6138      	str	r0, [r7, #16]

        /* Wait till HSI is ready */
        while (__HAL_RCC_GET_FLAG(RCC_FLAG_HSIRDY) != RESET)
 8000caa:	e008      	b.n	8000cbe <HAL_RCC_OscConfig+0x206>
        {
          if ((HAL_GetTick() - tickstart) > HSI_TIMEOUT_VALUE)
 8000cac:	f7ff fdc2 	bl	8000834 <HAL_GetTick>
 8000cb0:	4602      	mov	r2, r0
 8000cb2:	693b      	ldr	r3, [r7, #16]
 8000cb4:	1ad3      	subs	r3, r2, r3
 8000cb6:	2b02      	cmp	r3, #2
 8000cb8:	d901      	bls.n	8000cbe <HAL_RCC_OscConfig+0x206>
          {
            return HAL_TIMEOUT;
 8000cba:	2303      	movs	r3, #3
 8000cbc:	e1a3      	b.n	8001006 <HAL_RCC_OscConfig+0x54e>
        while (__HAL_RCC_GET_FLAG(RCC_FLAG_HSIRDY) != RESET)
 8000cbe:	4b1e      	ldr	r3, [pc, #120]	; (8000d38 <HAL_RCC_OscConfig+0x280>)
 8000cc0:	681b      	ldr	r3, [r3, #0]
 8000cc2:	f003 0302 	and.w	r3, r3, #2
 8000cc6:	2b00      	cmp	r3, #0
 8000cc8:	d1f0      	bne.n	8000cac <HAL_RCC_OscConfig+0x1f4>
        }
      }
    }
  }
  /*------------------------------ LSI Configuration -------------------------*/
  if (((RCC_OscInitStruct->OscillatorType) & RCC_OSCILLATORTYPE_LSI) == RCC_OSCILLATORTYPE_LSI)
 8000cca:	687b      	ldr	r3, [r7, #4]
 8000ccc:	681b      	ldr	r3, [r3, #0]
 8000cce:	f003 0308 	and.w	r3, r3, #8
 8000cd2:	2b00      	cmp	r3, #0
 8000cd4:	d038      	beq.n	8000d48 <HAL_RCC_OscConfig+0x290>
  {
    /* Check the parameters */
    assert_param(IS_RCC_LSI(RCC_OscInitStruct->LSIState));

    /* Check the LSI State */
    if ((RCC_OscInitStruct->LSIState) != RCC_LSI_OFF)
 8000cd6:	687b      	ldr	r3, [r7, #4]
 8000cd8:	695b      	ldr	r3, [r3, #20]
 8000cda:	2b00      	cmp	r3, #0
 8000cdc:	d019      	beq.n	8000d12 <HAL_RCC_OscConfig+0x25a>
    {
      /* Enable the Internal Low Speed oscillator (LSI). */
      __HAL_RCC_LSI_ENABLE();
 8000cde:	4b16      	ldr	r3, [pc, #88]	; (8000d38 <HAL_RCC_OscConfig+0x280>)
 8000ce0:	6f5b      	ldr	r3, [r3, #116]	; 0x74
 8000ce2:	4a15      	ldr	r2, [pc, #84]	; (8000d38 <HAL_RCC_OscConfig+0x280>)
 8000ce4:	f043 0301 	orr.w	r3, r3, #1
 8000ce8:	6753      	str	r3, [r2, #116]	; 0x74

      /* Get Start Tick*/
      tickstart = HAL_GetTick();
 8000cea:	f7ff fda3 	bl	8000834 <HAL_GetTick>
 8000cee:	6138      	str	r0, [r7, #16]

      /* Wait till LSI is ready */
      while (__HAL_RCC_GET_FLAG(RCC_FLAG_LSIRDY) == RESET)
 8000cf0:	e008      	b.n	8000d04 <HAL_RCC_OscConfig+0x24c>
      {
        if ((HAL_GetTick() - tickstart) > LSI_TIMEOUT_VALUE)
 8000cf2:	f7ff fd9f 	bl	8000834 <HAL_GetTick>
 8000cf6:	4602      	mov	r2, r0
 8000cf8:	693b      	ldr	r3, [r7, #16]
 8000cfa:	1ad3      	subs	r3, r2, r3
 8000cfc:	2b02      	cmp	r3, #2
 8000cfe:	d901      	bls.n	8000d04 <HAL_RCC_OscConfig+0x24c>
        {
          return HAL_TIMEOUT;
 8000d00:	2303      	movs	r3, #3
 8000d02:	e180      	b.n	8001006 <HAL_RCC_OscConfig+0x54e>
      while (__HAL_RCC_GET_FLAG(RCC_FLAG_LSIRDY) == RESET)
 8000d04:	4b0c      	ldr	r3, [pc, #48]	; (8000d38 <HAL_RCC_OscConfig+0x280>)
 8000d06:	6f5b      	ldr	r3, [r3, #116]	; 0x74
 8000d08:	f003 0302 	and.w	r3, r3, #2
 8000d0c:	2b00      	cmp	r3, #0
 8000d0e:	d0f0      	beq.n	8000cf2 <HAL_RCC_OscConfig+0x23a>
 8000d10:	e01a      	b.n	8000d48 <HAL_RCC_OscConfig+0x290>
      }
    }
    else
    {
      /* Disable the Internal Low Speed oscillator (LSI). */
      __HAL_RCC_LSI_DISABLE();
 8000d12:	4b09      	ldr	r3, [pc, #36]	; (8000d38 <HAL_RCC_OscConfig+0x280>)
 8000d14:	6f5b      	ldr	r3, [r3, #116]	; 0x74
 8000d16:	4a08      	ldr	r2, [pc, #32]	; (8000d38 <HAL_RCC_OscConfig+0x280>)
 8000d18:	f023 0301 	bic.w	r3, r3, #1
 8000d1c:	6753      	str	r3, [r2, #116]	; 0x74

      /* Get Start Tick*/
      tickstart = HAL_GetTick();
 8000d1e:	f7ff fd89 	bl	8000834 <HAL_GetTick>
 8000d22:	6138      	str	r0, [r7, #16]

      /* Wait till LSI is ready */
      while (__HAL_RCC_GET_FLAG(RCC_FLAG_LSIRDY) != RESET)
 8000d24:	e00a      	b.n	8000d3c <HAL_RCC_OscConfig+0x284>
      {
        if ((HAL_GetTick() - tickstart) > LSI_TIMEOUT_VALUE)
 8000d26:	f7ff fd85 	bl	8000834 <HAL_GetTick>
 8000d2a:	4602      	mov	r2, r0
 8000d2c:	693b      	ldr	r3, [r7, #16]
 8000d2e:	1ad3      	subs	r3, r2, r3
 8000d30:	2b02      	cmp	r3, #2
 8000d32:	d903      	bls.n	8000d3c <HAL_RCC_OscConfig+0x284>
        {
          return HAL_TIMEOUT;
 8000d34:	2303      	movs	r3, #3
 8000d36:	e166      	b.n	8001006 <HAL_RCC_OscConfig+0x54e>
 8000d38:	40023800 	.word	0x40023800
      while (__HAL_RCC_GET_FLAG(RCC_FLAG_LSIRDY) != RESET)
 8000d3c:	4b92      	ldr	r3, [pc, #584]	; (8000f88 <HAL_RCC_OscConfig+0x4d0>)
 8000d3e:	6f5b      	ldr	r3, [r3, #116]	; 0x74
 8000d40:	f003 0302 	and.w	r3, r3, #2
 8000d44:	2b00      	cmp	r3, #0
 8000d46:	d1ee      	bne.n	8000d26 <HAL_RCC_OscConfig+0x26e>
        }
      }
    }
  }
  /*------------------------------ LSE Configuration -------------------------*/
  if (((RCC_OscInitStruct->OscillatorType) & RCC_OSCILLATORTYPE_LSE) == RCC_OSCILLATORTYPE_LSE)
 8000d48:	687b      	ldr	r3, [r7, #4]
 8000d4a:	681b      	ldr	r3, [r3, #0]
 8000d4c:	f003 0304 	and.w	r3, r3, #4
 8000d50:	2b00      	cmp	r3, #0
 8000d52:	f000 80a4 	beq.w	8000e9e <HAL_RCC_OscConfig+0x3e6>
    /* Check the parameters */
    assert_param(IS_RCC_LSE(RCC_OscInitStruct->LSEState));

    /* Update LSE configuration in Backup Domain control register    */
    /* Requires to enable write access to Backup Domain of necessary */
    if (__HAL_RCC_PWR_IS_CLK_DISABLED())
 8000d56:	4b8c      	ldr	r3, [pc, #560]	; (8000f88 <HAL_RCC_OscConfig+0x4d0>)
 8000d58:	6c1b      	ldr	r3, [r3, #64]	; 0x40
 8000d5a:	f003 5380 	and.w	r3, r3, #268435456	; 0x10000000
 8000d5e:	2b00      	cmp	r3, #0
 8000d60:	d10d      	bne.n	8000d7e <HAL_RCC_OscConfig+0x2c6>
    {
      /* Enable Power Clock*/
      __HAL_RCC_PWR_CLK_ENABLE();
 8000d62:	4b89      	ldr	r3, [pc, #548]	; (8000f88 <HAL_RCC_OscConfig+0x4d0>)
 8000d64:	6c1b      	ldr	r3, [r3, #64]	; 0x40
 8000d66:	4a88      	ldr	r2, [pc, #544]	; (8000f88 <HAL_RCC_OscConfig+0x4d0>)
 8000d68:	f043 5380 	orr.w	r3, r3, #268435456	; 0x10000000
 8000d6c:	6413      	str	r3, [r2, #64]	; 0x40
 8000d6e:	4b86      	ldr	r3, [pc, #536]	; (8000f88 <HAL_RCC_OscConfig+0x4d0>)
 8000d70:	6c1b      	ldr	r3, [r3, #64]	; 0x40
 8000d72:	f003 5380 	and.w	r3, r3, #268435456	; 0x10000000
 8000d76:	60bb      	str	r3, [r7, #8]
 8000d78:	68bb      	ldr	r3, [r7, #8]
      pwrclkchanged = SET;
 8000d7a:	2301      	movs	r3, #1
 8000d7c:	75fb      	strb	r3, [r7, #23]
    }

    if (HAL_IS_BIT_CLR(PWR->CR1, PWR_CR1_DBP))
 8000d7e:	4b83      	ldr	r3, [pc, #524]	; (8000f8c <HAL_RCC_OscConfig+0x4d4>)
 8000d80:	681b      	ldr	r3, [r3, #0]
 8000d82:	f403 7380 	and.w	r3, r3, #256	; 0x100
 8000d86:	2b00      	cmp	r3, #0
 8000d88:	d118      	bne.n	8000dbc <HAL_RCC_OscConfig+0x304>
    {
      /* Enable write access to Backup domain */
      PWR->CR1 |= PWR_CR1_DBP;
 8000d8a:	4b80      	ldr	r3, [pc, #512]	; (8000f8c <HAL_RCC_OscConfig+0x4d4>)
 8000d8c:	681b      	ldr	r3, [r3, #0]
 8000d8e:	4a7f      	ldr	r2, [pc, #508]	; (8000f8c <HAL_RCC_OscConfig+0x4d4>)
 8000d90:	f443 7380 	orr.w	r3, r3, #256	; 0x100
 8000d94:	6013      	str	r3, [r2, #0]

      /* Wait for Backup domain Write protection disable */
      tickstart = HAL_GetTick();
 8000d96:	f7ff fd4d 	bl	8000834 <HAL_GetTick>
 8000d9a:	6138      	str	r0, [r7, #16]

      while (HAL_IS_BIT_CLR(PWR->CR1, PWR_CR1_DBP))
 8000d9c:	e008      	b.n	8000db0 <HAL_RCC_OscConfig+0x2f8>
      {
        if ((HAL_GetTick() - tickstart) > RCC_DBP_TIMEOUT_VALUE)
 8000d9e:	f7ff fd49 	bl	8000834 <HAL_GetTick>
 8000da2:	4602      	mov	r2, r0
 8000da4:	693b      	ldr	r3, [r7, #16]
 8000da6:	1ad3      	subs	r3, r2, r3
 8000da8:	2b64      	cmp	r3, #100	; 0x64
 8000daa:	d901      	bls.n	8000db0 <HAL_RCC_OscConfig+0x2f8>
        {
          return HAL_TIMEOUT;
 8000dac:	2303      	movs	r3, #3
 8000dae:	e12a      	b.n	8001006 <HAL_RCC_OscConfig+0x54e>
      while (HAL_IS_BIT_CLR(PWR->CR1, PWR_CR1_DBP))
 8000db0:	4b76      	ldr	r3, [pc, #472]	; (8000f8c <HAL_RCC_OscConfig+0x4d4>)
 8000db2:	681b      	ldr	r3, [r3, #0]
 8000db4:	f403 7380 	and.w	r3, r3, #256	; 0x100
 8000db8:	2b00      	cmp	r3, #0
 8000dba:	d0f0      	beq.n	8000d9e <HAL_RCC_OscConfig+0x2e6>
        }
      }
    }

    /* Set the new LSE configuration -----------------------------------------*/
    __HAL_RCC_LSE_CONFIG(RCC_OscInitStruct->LSEState);
 8000dbc:	687b      	ldr	r3, [r7, #4]
 8000dbe:	689b      	ldr	r3, [r3, #8]
 8000dc0:	2b01      	cmp	r3, #1
 8000dc2:	d106      	bne.n	8000dd2 <HAL_RCC_OscConfig+0x31a>
 8000dc4:	4b70      	ldr	r3, [pc, #448]	; (8000f88 <HAL_RCC_OscConfig+0x4d0>)
 8000dc6:	6f1b      	ldr	r3, [r3, #112]	; 0x70
 8000dc8:	4a6f      	ldr	r2, [pc, #444]	; (8000f88 <HAL_RCC_OscConfig+0x4d0>)
 8000dca:	f043 0301 	orr.w	r3, r3, #1
 8000dce:	6713      	str	r3, [r2, #112]	; 0x70
 8000dd0:	e02d      	b.n	8000e2e <HAL_RCC_OscConfig+0x376>
 8000dd2:	687b      	ldr	r3, [r7, #4]
 8000dd4:	689b      	ldr	r3, [r3, #8]
 8000dd6:	2b00      	cmp	r3, #0
 8000dd8:	d10c      	bne.n	8000df4 <HAL_RCC_OscConfig+0x33c>
 8000dda:	4b6b      	ldr	r3, [pc, #428]	; (8000f88 <HAL_RCC_OscConfig+0x4d0>)
 8000ddc:	6f1b      	ldr	r3, [r3, #112]	; 0x70
 8000dde:	4a6a      	ldr	r2, [pc, #424]	; (8000f88 <HAL_RCC_OscConfig+0x4d0>)
 8000de0:	f023 0301 	bic.w	r3, r3, #1
 8000de4:	6713      	str	r3, [r2, #112]	; 0x70
 8000de6:	4b68      	ldr	r3, [pc, #416]	; (8000f88 <HAL_RCC_OscConfig+0x4d0>)
 8000de8:	6f1b      	ldr	r3, [r3, #112]	; 0x70
 8000dea:	4a67      	ldr	r2, [pc, #412]	; (8000f88 <HAL_RCC_OscConfig+0x4d0>)
 8000dec:	f023 0304 	bic.w	r3, r3, #4
 8000df0:	6713      	str	r3, [r2, #112]	; 0x70
 8000df2:	e01c      	b.n	8000e2e <HAL_RCC_OscConfig+0x376>
 8000df4:	687b      	ldr	r3, [r7, #4]
 8000df6:	689b      	ldr	r3, [r3, #8]
 8000df8:	2b05      	cmp	r3, #5
 8000dfa:	d10c      	bne.n	8000e16 <HAL_RCC_OscConfig+0x35e>
 8000dfc:	4b62      	ldr	r3, [pc, #392]	; (8000f88 <HAL_RCC_OscConfig+0x4d0>)
 8000dfe:	6f1b      	ldr	r3, [r3, #112]	; 0x70
 8000e00:	4a61      	ldr	r2, [pc, #388]	; (8000f88 <HAL_RCC_OscConfig+0x4d0>)
 8000e02:	f043 0304 	orr.w	r3, r3, #4
 8000e06:	6713      	str	r3, [r2, #112]	; 0x70
 8000e08:	4b5f      	ldr	r3, [pc, #380]	; (8000f88 <HAL_RCC_OscConfig+0x4d0>)
 8000e0a:	6f1b      	ldr	r3, [r3, #112]	; 0x70
 8000e0c:	4a5e      	ldr	r2, [pc, #376]	; (8000f88 <HAL_RCC_OscConfig+0x4d0>)
 8000e0e:	f043 0301 	orr.w	r3, r3, #1
 8000e12:	6713      	str	r3, [r2, #112]	; 0x70
 8000e14:	e00b      	b.n	8000e2e <HAL_RCC_OscConfig+0x376>
 8000e16:	4b5c      	ldr	r3, [pc, #368]	; (8000f88 <HAL_RCC_OscConfig+0x4d0>)
 8000e18:	6f1b      	ldr	r3, [r3, #112]	; 0x70
 8000e1a:	4a5b      	ldr	r2, [pc, #364]	; (8000f88 <HAL_RCC_OscConfig+0x4d0>)
 8000e1c:	f023 0301 	bic.w	r3, r3, #1
 8000e20:	6713      	str	r3, [r2, #112]	; 0x70
 8000e22:	4b59      	ldr	r3, [pc, #356]	; (8000f88 <HAL_RCC_OscConfig+0x4d0>)
 8000e24:	6f1b      	ldr	r3, [r3, #112]	; 0x70
 8000e26:	4a58      	ldr	r2, [pc, #352]	; (8000f88 <HAL_RCC_OscConfig+0x4d0>)
 8000e28:	f023 0304 	bic.w	r3, r3, #4
 8000e2c:	6713      	str	r3, [r2, #112]	; 0x70
    /* Check the LSE State */
    if ((RCC_OscInitStruct->LSEState) != RCC_LSE_OFF)
 8000e2e:	687b      	ldr	r3, [r7, #4]
 8000e30:	689b      	ldr	r3, [r3, #8]
 8000e32:	2b00      	cmp	r3, #0
 8000e34:	d015      	beq.n	8000e62 <HAL_RCC_OscConfig+0x3aa>
    {
      /* Get Start Tick*/
      tickstart = HAL_GetTick();
 8000e36:	f7ff fcfd 	bl	8000834 <HAL_GetTick>
 8000e3a:	6138      	str	r0, [r7, #16]

      /* Wait till LSE is ready */
      while (__HAL_RCC_GET_FLAG(RCC_FLAG_LSERDY) == RESET)
 8000e3c:	e00a      	b.n	8000e54 <HAL_RCC_OscConfig+0x39c>
      {
        if ((HAL_GetTick() - tickstart) > RCC_LSE_TIMEOUT_VALUE)
 8000e3e:	f7ff fcf9 	bl	8000834 <HAL_GetTick>
 8000e42:	4602      	mov	r2, r0
 8000e44:	693b      	ldr	r3, [r7, #16]
 8000e46:	1ad3      	subs	r3, r2, r3
 8000e48:	f241 3288 	movw	r2, #5000	; 0x1388
 8000e4c:	4293      	cmp	r3, r2
 8000e4e:	d901      	bls.n	8000e54 <HAL_RCC_OscConfig+0x39c>
        {
          return HAL_TIMEOUT;
 8000e50:	2303      	movs	r3, #3
 8000e52:	e0d8      	b.n	8001006 <HAL_RCC_OscConfig+0x54e>
      while (__HAL_RCC_GET_FLAG(RCC_FLAG_LSERDY) == RESET)
 8000e54:	4b4c      	ldr	r3, [pc, #304]	; (8000f88 <HAL_RCC_OscConfig+0x4d0>)
 8000e56:	6f1b      	ldr	r3, [r3, #112]	; 0x70
 8000e58:	f003 0302 	and.w	r3, r3, #2
 8000e5c:	2b00      	cmp	r3, #0
 8000e5e:	d0ee      	beq.n	8000e3e <HAL_RCC_OscConfig+0x386>
 8000e60:	e014      	b.n	8000e8c <HAL_RCC_OscConfig+0x3d4>
      }
    }
    else
    {
      /* Get Start Tick*/
      tickstart = HAL_GetTick();
 8000e62:	f7ff fce7 	bl	8000834 <HAL_GetTick>
 8000e66:	6138      	str	r0, [r7, #16]

      /* Wait till LSE is ready */
      while (__HAL_RCC_GET_FLAG(RCC_FLAG_LSERDY) != RESET)
 8000e68:	e00a      	b.n	8000e80 <HAL_RCC_OscConfig+0x3c8>
      {
        if ((HAL_GetTick() - tickstart) > RCC_LSE_TIMEOUT_VALUE)
 8000e6a:	f7ff fce3 	bl	8000834 <HAL_GetTick>
 8000e6e:	4602      	mov	r2, r0
 8000e70:	693b      	ldr	r3, [r7, #16]
 8000e72:	1ad3      	subs	r3, r2, r3
 8000e74:	f241 3288 	movw	r2, #5000	; 0x1388
 8000e78:	4293      	cmp	r3, r2
 8000e7a:	d901      	bls.n	8000e80 <HAL_RCC_OscConfig+0x3c8>
        {
          return HAL_TIMEOUT;
 8000e7c:	2303      	movs	r3, #3
 8000e7e:	e0c2      	b.n	8001006 <HAL_RCC_OscConfig+0x54e>
      while (__HAL_RCC_GET_FLAG(RCC_FLAG_LSERDY) != RESET)
 8000e80:	4b41      	ldr	r3, [pc, #260]	; (8000f88 <HAL_RCC_OscConfig+0x4d0>)
 8000e82:	6f1b      	ldr	r3, [r3, #112]	; 0x70
 8000e84:	f003 0302 	and.w	r3, r3, #2
 8000e88:	2b00      	cmp	r3, #0
 8000e8a:	d1ee      	bne.n	8000e6a <HAL_RCC_OscConfig+0x3b2>
        }
      }
    }

    /* Restore clock configuration if changed */
    if (pwrclkchanged == SET)
 8000e8c:	7dfb      	ldrb	r3, [r7, #23]
 8000e8e:	2b01      	cmp	r3, #1
 8000e90:	d105      	bne.n	8000e9e <HAL_RCC_OscConfig+0x3e6>
    {
      __HAL_RCC_PWR_CLK_DISABLE();
 8000e92:	4b3d      	ldr	r3, [pc, #244]	; (8000f88 <HAL_RCC_OscConfig+0x4d0>)
 8000e94:	6c1b      	ldr	r3, [r3, #64]	; 0x40
 8000e96:	4a3c      	ldr	r2, [pc, #240]	; (8000f88 <HAL_RCC_OscConfig+0x4d0>)
 8000e98:	f023 5380 	bic.w	r3, r3, #268435456	; 0x10000000
 8000e9c:	6413      	str	r3, [r2, #64]	; 0x40
    }
  }
  /*-------------------------------- PLL Configuration -----------------------*/
  /* Check the parameters */
  assert_param(IS_RCC_PLL(RCC_OscInitStruct->PLL.PLLState));
  if ((RCC_OscInitStruct->PLL.PLLState) != RCC_PLL_NONE)
 8000e9e:	687b      	ldr	r3, [r7, #4]
 8000ea0:	699b      	ldr	r3, [r3, #24]
 8000ea2:	2b00      	cmp	r3, #0
 8000ea4:	f000 80ae 	beq.w	8001004 <HAL_RCC_OscConfig+0x54c>
  {
    /* Check if the PLL is used as system clock or not */
    if (__HAL_RCC_GET_SYSCLK_SOURCE() != RCC_SYSCLKSOURCE_STATUS_PLLCLK)
 8000ea8:	4b37      	ldr	r3, [pc, #220]	; (8000f88 <HAL_RCC_OscConfig+0x4d0>)
 8000eaa:	689b      	ldr	r3, [r3, #8]
 8000eac:	f003 030c 	and.w	r3, r3, #12
 8000eb0:	2b08      	cmp	r3, #8
 8000eb2:	d06d      	beq.n	8000f90 <HAL_RCC_OscConfig+0x4d8>
    {
      if ((RCC_OscInitStruct->PLL.PLLState) == RCC_PLL_ON)
 8000eb4:	687b      	ldr	r3, [r7, #4]
 8000eb6:	699b      	ldr	r3, [r3, #24]
 8000eb8:	2b02      	cmp	r3, #2
 8000eba:	d14b      	bne.n	8000f54 <HAL_RCC_OscConfig+0x49c>
#if defined (RCC_PLLCFGR_PLLR)
        assert_param(IS_RCC_PLLR_VALUE(RCC_OscInitStruct->PLL.PLLR));
#endif

        /* Disable the main PLL. */
        __HAL_RCC_PLL_DISABLE();
 8000ebc:	4b32      	ldr	r3, [pc, #200]	; (8000f88 <HAL_RCC_OscConfig+0x4d0>)
 8000ebe:	681b      	ldr	r3, [r3, #0]
 8000ec0:	4a31      	ldr	r2, [pc, #196]	; (8000f88 <HAL_RCC_OscConfig+0x4d0>)
 8000ec2:	f023 7380 	bic.w	r3, r3, #16777216	; 0x1000000
 8000ec6:	6013      	str	r3, [r2, #0]

        /* Get Start Tick*/
        tickstart = HAL_GetTick();
 8000ec8:	f7ff fcb4 	bl	8000834 <HAL_GetTick>
 8000ecc:	6138      	str	r0, [r7, #16]

        /* Wait till PLL is ready */
        while (__HAL_RCC_GET_FLAG(RCC_FLAG_PLLRDY) != RESET)
 8000ece:	e008      	b.n	8000ee2 <HAL_RCC_OscConfig+0x42a>
        {
          if ((HAL_GetTick() - tickstart) > PLL_TIMEOUT_VALUE)
 8000ed0:	f7ff fcb0 	bl	8000834 <HAL_GetTick>
 8000ed4:	4602      	mov	r2, r0
 8000ed6:	693b      	ldr	r3, [r7, #16]
 8000ed8:	1ad3      	subs	r3, r2, r3
 8000eda:	2b02      	cmp	r3, #2
 8000edc:	d901      	bls.n	8000ee2 <HAL_RCC_OscConfig+0x42a>
          {
            return HAL_TIMEOUT;
 8000ede:	2303      	movs	r3, #3
 8000ee0:	e091      	b.n	8001006 <HAL_RCC_OscConfig+0x54e>
        while (__HAL_RCC_GET_FLAG(RCC_FLAG_PLLRDY) != RESET)
 8000ee2:	4b29      	ldr	r3, [pc, #164]	; (8000f88 <HAL_RCC_OscConfig+0x4d0>)
 8000ee4:	681b      	ldr	r3, [r3, #0]
 8000ee6:	f003 7300 	and.w	r3, r3, #33554432	; 0x2000000
 8000eea:	2b00      	cmp	r3, #0
 8000eec:	d1f0      	bne.n	8000ed0 <HAL_RCC_OscConfig+0x418>
          }
        }

        /* Configure the main PLL clock source, multiplication and division factors. */
#if defined (RCC_PLLCFGR_PLLR)
        __HAL_RCC_PLL_CONFIG(RCC_OscInitStruct->PLL.PLLSource,
 8000eee:	687b      	ldr	r3, [r7, #4]
 8000ef0:	69da      	ldr	r2, [r3, #28]
 8000ef2:	687b      	ldr	r3, [r7, #4]
 8000ef4:	6a1b      	ldr	r3, [r3, #32]
 8000ef6:	431a      	orrs	r2, r3
 8000ef8:	687b      	ldr	r3, [r7, #4]
 8000efa:	6a5b      	ldr	r3, [r3, #36]	; 0x24
 8000efc:	019b      	lsls	r3, r3, #6
 8000efe:	431a      	orrs	r2, r3
 8000f00:	687b      	ldr	r3, [r7, #4]
 8000f02:	6a9b      	ldr	r3, [r3, #40]	; 0x28
 8000f04:	085b      	lsrs	r3, r3, #1
 8000f06:	3b01      	subs	r3, #1
 8000f08:	041b      	lsls	r3, r3, #16
 8000f0a:	431a      	orrs	r2, r3
 8000f0c:	687b      	ldr	r3, [r7, #4]
 8000f0e:	6adb      	ldr	r3, [r3, #44]	; 0x2c
 8000f10:	061b      	lsls	r3, r3, #24
 8000f12:	431a      	orrs	r2, r3
 8000f14:	687b      	ldr	r3, [r7, #4]
 8000f16:	6b1b      	ldr	r3, [r3, #48]	; 0x30
 8000f18:	071b      	lsls	r3, r3, #28
 8000f1a:	491b      	ldr	r1, [pc, #108]	; (8000f88 <HAL_RCC_OscConfig+0x4d0>)
 8000f1c:	4313      	orrs	r3, r2
 8000f1e:	604b      	str	r3, [r1, #4]
                             RCC_OscInitStruct->PLL.PLLP,
                             RCC_OscInitStruct->PLL.PLLQ);
#endif

        /* Enable the main PLL. */
        __HAL_RCC_PLL_ENABLE();
 8000f20:	4b19      	ldr	r3, [pc, #100]	; (8000f88 <HAL_RCC_OscConfig+0x4d0>)
 8000f22:	681b      	ldr	r3, [r3, #0]
 8000f24:	4a18      	ldr	r2, [pc, #96]	; (8000f88 <HAL_RCC_OscConfig+0x4d0>)
 8000f26:	f043 7380 	orr.w	r3, r3, #16777216	; 0x1000000
 8000f2a:	6013      	str	r3, [r2, #0]

        /* Get Start Tick*/
        tickstart = HAL_GetTick();
 8000f2c:	f7ff fc82 	bl	8000834 <HAL_GetTick>
 8000f30:	6138      	str	r0, [r7, #16]

        /* Wait till PLL is ready */
        while (__HAL_RCC_GET_FLAG(RCC_FLAG_PLLRDY) == RESET)
 8000f32:	e008      	b.n	8000f46 <HAL_RCC_OscConfig+0x48e>
        {
          if ((HAL_GetTick() - tickstart) > PLL_TIMEOUT_VALUE)
 8000f34:	f7ff fc7e 	bl	8000834 <HAL_GetTick>
 8000f38:	4602      	mov	r2, r0
 8000f3a:	693b      	ldr	r3, [r7, #16]
 8000f3c:	1ad3      	subs	r3, r2, r3
 8000f3e:	2b02      	cmp	r3, #2
 8000f40:	d901      	bls.n	8000f46 <HAL_RCC_OscConfig+0x48e>
          {
            return HAL_TIMEOUT;
 8000f42:	2303      	movs	r3, #3
 8000f44:	e05f      	b.n	8001006 <HAL_RCC_OscConfig+0x54e>
        while (__HAL_RCC_GET_FLAG(RCC_FLAG_PLLRDY) == RESET)
 8000f46:	4b10      	ldr	r3, [pc, #64]	; (8000f88 <HAL_RCC_OscConfig+0x4d0>)
 8000f48:	681b      	ldr	r3, [r3, #0]
 8000f4a:	f003 7300 	and.w	r3, r3, #33554432	; 0x2000000
 8000f4e:	2b00      	cmp	r3, #0
 8000f50:	d0f0      	beq.n	8000f34 <HAL_RCC_OscConfig+0x47c>
 8000f52:	e057      	b.n	8001004 <HAL_RCC_OscConfig+0x54c>
        }
      }
      else
      {
        /* Disable the main PLL. */
        __HAL_RCC_PLL_DISABLE();
 8000f54:	4b0c      	ldr	r3, [pc, #48]	; (8000f88 <HAL_RCC_OscConfig+0x4d0>)
 8000f56:	681b      	ldr	r3, [r3, #0]
 8000f58:	4a0b      	ldr	r2, [pc, #44]	; (8000f88 <HAL_RCC_OscConfig+0x4d0>)
 8000f5a:	f023 7380 	bic.w	r3, r3, #16777216	; 0x1000000
 8000f5e:	6013      	str	r3, [r2, #0]

        /* Get Start Tick*/
        tickstart = HAL_GetTick();
 8000f60:	f7ff fc68 	bl	8000834 <HAL_GetTick>
 8000f64:	6138      	str	r0, [r7, #16]

        /* Wait till PLL is ready */
        while (__HAL_RCC_GET_FLAG(RCC_FLAG_PLLRDY) != RESET)
 8000f66:	e008      	b.n	8000f7a <HAL_RCC_OscConfig+0x4c2>
        {
          if ((HAL_GetTick() - tickstart) > PLL_TIMEOUT_VALUE)
 8000f68:	f7ff fc64 	bl	8000834 <HAL_GetTick>
 8000f6c:	4602      	mov	r2, r0
 8000f6e:	693b      	ldr	r3, [r7, #16]
 8000f70:	1ad3      	subs	r3, r2, r3
 8000f72:	2b02      	cmp	r3, #2
 8000f74:	d901      	bls.n	8000f7a <HAL_RCC_OscConfig+0x4c2>
          {
            return HAL_TIMEOUT;
 8000f76:	2303      	movs	r3, #3
 8000f78:	e045      	b.n	8001006 <HAL_RCC_OscConfig+0x54e>
        while (__HAL_RCC_GET_FLAG(RCC_FLAG_PLLRDY) != RESET)
 8000f7a:	4b03      	ldr	r3, [pc, #12]	; (8000f88 <HAL_RCC_OscConfig+0x4d0>)
 8000f7c:	681b      	ldr	r3, [r3, #0]
 8000f7e:	f003 7300 	and.w	r3, r3, #33554432	; 0x2000000
 8000f82:	2b00      	cmp	r3, #0
 8000f84:	d1f0      	bne.n	8000f68 <HAL_RCC_OscConfig+0x4b0>
 8000f86:	e03d      	b.n	8001004 <HAL_RCC_OscConfig+0x54c>
 8000f88:	40023800 	.word	0x40023800
 8000f8c:	40007000 	.word	0x40007000
      }
    }
    else
    {
      /* Do not return HAL_ERROR if request repeats the current configuration */
      pll_config = RCC->PLLCFGR;
 8000f90:	4b1f      	ldr	r3, [pc, #124]	; (8001010 <HAL_RCC_OscConfig+0x558>)
 8000f92:	685b      	ldr	r3, [r3, #4]
 8000f94:	60fb      	str	r3, [r7, #12]
#if defined (RCC_PLLCFGR_PLLR)
      if (((RCC_OscInitStruct->PLL.PLLState) == RCC_PLL_OFF) ||
 8000f96:	687b      	ldr	r3, [r7, #4]
 8000f98:	699b      	ldr	r3, [r3, #24]
 8000f9a:	2b01      	cmp	r3, #1
 8000f9c:	d030      	beq.n	8001000 <HAL_RCC_OscConfig+0x548>
          (READ_BIT(pll_config, RCC_PLLCFGR_PLLSRC) != RCC_OscInitStruct->PLL.PLLSource) ||
 8000f9e:	68fb      	ldr	r3, [r7, #12]
 8000fa0:	f403 0280 	and.w	r2, r3, #4194304	; 0x400000
 8000fa4:	687b      	ldr	r3, [r7, #4]
 8000fa6:	69db      	ldr	r3, [r3, #28]
      if (((RCC_OscInitStruct->PLL.PLLState) == RCC_PLL_OFF) ||
 8000fa8:	429a      	cmp	r2, r3
 8000faa:	d129      	bne.n	8001000 <HAL_RCC_OscConfig+0x548>
          (READ_BIT(pll_config, RCC_PLLCFGR_PLLM) != RCC_OscInitStruct->PLL.PLLM) ||
 8000fac:	68fb      	ldr	r3, [r7, #12]
 8000fae:	f003 023f 	and.w	r2, r3, #63	; 0x3f
 8000fb2:	687b      	ldr	r3, [r7, #4]
 8000fb4:	6a1b      	ldr	r3, [r3, #32]
          (READ_BIT(pll_config, RCC_PLLCFGR_PLLSRC) != RCC_OscInitStruct->PLL.PLLSource) ||
 8000fb6:	429a      	cmp	r2, r3
 8000fb8:	d122      	bne.n	8001000 <HAL_RCC_OscConfig+0x548>
          (READ_BIT(pll_config, RCC_PLLCFGR_PLLN) != (RCC_OscInitStruct->PLL.PLLN << RCC_PLLCFGR_PLLN_Pos)) ||
 8000fba:	68fa      	ldr	r2, [r7, #12]
 8000fbc:	f647 73c0 	movw	r3, #32704	; 0x7fc0
 8000fc0:	4013      	ands	r3, r2
 8000fc2:	687a      	ldr	r2, [r7, #4]
 8000fc4:	6a52      	ldr	r2, [r2, #36]	; 0x24
 8000fc6:	0192      	lsls	r2, r2, #6
          (READ_BIT(pll_config, RCC_PLLCFGR_PLLM) != RCC_OscInitStruct->PLL.PLLM) ||
 8000fc8:	4293      	cmp	r3, r2
 8000fca:	d119      	bne.n	8001000 <HAL_RCC_OscConfig+0x548>
          (READ_BIT(pll_config, RCC_PLLCFGR_PLLP) != ((((RCC_OscInitStruct->PLL.PLLP) >> 1U) - 1U) << RCC_PLLCFGR_PLLP_Pos)) ||
 8000fcc:	68fb      	ldr	r3, [r7, #12]
 8000fce:	f403 3240 	and.w	r2, r3, #196608	; 0x30000
 8000fd2:	687b      	ldr	r3, [r7, #4]
 8000fd4:	6a9b      	ldr	r3, [r3, #40]	; 0x28
 8000fd6:	085b      	lsrs	r3, r3, #1
 8000fd8:	3b01      	subs	r3, #1
 8000fda:	041b      	lsls	r3, r3, #16
          (READ_BIT(pll_config, RCC_PLLCFGR_PLLN) != (RCC_OscInitStruct->PLL.PLLN << RCC_PLLCFGR_PLLN_Pos)) ||
 8000fdc:	429a      	cmp	r2, r3
 8000fde:	d10f      	bne.n	8001000 <HAL_RCC_OscConfig+0x548>
          (READ_BIT(pll_config, RCC_PLLCFGR_PLLQ) != (RCC_OscInitStruct->PLL.PLLQ << RCC_PLLCFGR_PLLQ_Pos)) ||
 8000fe0:	68fb      	ldr	r3, [r7, #12]
 8000fe2:	f003 6270 	and.w	r2, r3, #251658240	; 0xf000000
 8000fe6:	687b      	ldr	r3, [r7, #4]
 8000fe8:	6adb      	ldr	r3, [r3, #44]	; 0x2c
 8000fea:	061b      	lsls	r3, r3, #24
          (READ_BIT(pll_config, RCC_PLLCFGR_PLLP) != ((((RCC_OscInitStruct->PLL.PLLP) >> 1U) - 1U) << RCC_PLLCFGR_PLLP_Pos)) ||
 8000fec:	429a      	cmp	r2, r3
 8000fee:	d107      	bne.n	8001000 <HAL_RCC_OscConfig+0x548>
          (READ_BIT(pll_config, RCC_PLLCFGR_PLLR) != (RCC_OscInitStruct->PLL.PLLR << RCC_PLLCFGR_PLLR_Pos)))
 8000ff0:	68fb      	ldr	r3, [r7, #12]
 8000ff2:	f003 42e0 	and.w	r2, r3, #1879048192	; 0x70000000
 8000ff6:	687b      	ldr	r3, [r7, #4]
 8000ff8:	6b1b      	ldr	r3, [r3, #48]	; 0x30
 8000ffa:	071b      	lsls	r3, r3, #28
          (READ_BIT(pll_config, RCC_PLLCFGR_PLLQ) != (RCC_OscInitStruct->PLL.PLLQ << RCC_PLLCFGR_PLLQ_Pos)) ||
 8000ffc:	429a      	cmp	r2, r3
 8000ffe:	d001      	beq.n	8001004 <HAL_RCC_OscConfig+0x54c>
          (READ_BIT(pll_config, RCC_PLLCFGR_PLLN) != (RCC_OscInitStruct->PLL.PLLN << RCC_PLLCFGR_PLLN_Pos)) ||
          (READ_BIT(pll_config, RCC_PLLCFGR_PLLP) != ((((RCC_OscInitStruct->PLL.PLLP) >> 1U) - 1U) << RCC_PLLCFGR_PLLP_Pos)) ||
          (READ_BIT(pll_config, RCC_PLLCFGR_PLLQ) != (RCC_OscInitStruct->PLL.PLLQ << RCC_PLLCFGR_PLLQ_Pos)))
#endif
      {
        return HAL_ERROR;
 8001000:	2301      	movs	r3, #1
 8001002:	e000      	b.n	8001006 <HAL_RCC_OscConfig+0x54e>
      }
    }
  }
  return HAL_OK;
 8001004:	2300      	movs	r3, #0
}
 8001006:	4618      	mov	r0, r3
 8001008:	3718      	adds	r7, #24
 800100a:	46bd      	mov	sp, r7
 800100c:	bd80      	pop	{r7, pc}
 800100e:	bf00      	nop
 8001010:	40023800 	.word	0x40023800

08001014 <HAL_RCC_ClockConfig>:
  *         HPRE[3:0] bits to ensure that HCLK not exceed the maximum allowed frequency
  *         (for more details refer to section above "Initialization/de-initialization functions")
  * @retval None
  */
HAL_StatusTypeDef HAL_RCC_ClockConfig(RCC_ClkInitTypeDef  *RCC_ClkInitStruct, uint32_t FLatency)
{
 8001014:	b580      	push	{r7, lr}
 8001016:	b084      	sub	sp, #16
 8001018:	af00      	add	r7, sp, #0
 800101a:	6078      	str	r0, [r7, #4]
 800101c:	6039      	str	r1, [r7, #0]
  uint32_t tickstart = 0;
 800101e:	2300      	movs	r3, #0
 8001020:	60fb      	str	r3, [r7, #12]

  /* Check Null pointer */
  if (RCC_ClkInitStruct == NULL)
 8001022:	687b      	ldr	r3, [r7, #4]
 8001024:	2b00      	cmp	r3, #0
 8001026:	d101      	bne.n	800102c <HAL_RCC_ClockConfig+0x18>
  {
    return HAL_ERROR;
 8001028:	2301      	movs	r3, #1
 800102a:	e0d0      	b.n	80011ce <HAL_RCC_ClockConfig+0x1ba>
  /* To correctly read data from FLASH memory, the number of wait states (LATENCY)
     must be correctly programmed according to the frequency of the CPU clock
     (HCLK) and the supply voltage of the device. */

  /* Increasing the CPU frequency */
  if (FLatency > __HAL_FLASH_GET_LATENCY())
 800102c:	4b6a      	ldr	r3, [pc, #424]	; (80011d8 <HAL_RCC_ClockConfig+0x1c4>)
 800102e:	681b      	ldr	r3, [r3, #0]
 8001030:	f003 030f 	and.w	r3, r3, #15
 8001034:	683a      	ldr	r2, [r7, #0]
 8001036:	429a      	cmp	r2, r3
 8001038:	d910      	bls.n	800105c <HAL_RCC_ClockConfig+0x48>
  {
    /* Program the new number of wait states to the LATENCY bits in the FLASH_ACR register */
    __HAL_FLASH_SET_LATENCY(FLatency);
 800103a:	4b67      	ldr	r3, [pc, #412]	; (80011d8 <HAL_RCC_ClockConfig+0x1c4>)
 800103c:	681b      	ldr	r3, [r3, #0]
 800103e:	f023 020f 	bic.w	r2, r3, #15
 8001042:	4965      	ldr	r1, [pc, #404]	; (80011d8 <HAL_RCC_ClockConfig+0x1c4>)
 8001044:	683b      	ldr	r3, [r7, #0]
 8001046:	4313      	orrs	r3, r2
 8001048:	600b      	str	r3, [r1, #0]

    /* Check that the new number of wait states is taken into account to access the Flash
    memory by reading the FLASH_ACR register */
    if (__HAL_FLASH_GET_LATENCY() != FLatency)
 800104a:	4b63      	ldr	r3, [pc, #396]	; (80011d8 <HAL_RCC_ClockConfig+0x1c4>)
 800104c:	681b      	ldr	r3, [r3, #0]
 800104e:	f003 030f 	and.w	r3, r3, #15
 8001052:	683a      	ldr	r2, [r7, #0]
 8001054:	429a      	cmp	r2, r3
 8001056:	d001      	beq.n	800105c <HAL_RCC_ClockConfig+0x48>
    {
      return HAL_ERROR;
 8001058:	2301      	movs	r3, #1
 800105a:	e0b8      	b.n	80011ce <HAL_RCC_ClockConfig+0x1ba>
    }
  }

  /*-------------------------- HCLK Configuration --------------------------*/
  if (((RCC_ClkInitStruct->ClockType) & RCC_CLOCKTYPE_HCLK) == RCC_CLOCKTYPE_HCLK)
 800105c:	687b      	ldr	r3, [r7, #4]
 800105e:	681b      	ldr	r3, [r3, #0]
 8001060:	f003 0302 	and.w	r3, r3, #2
 8001064:	2b00      	cmp	r3, #0
 8001066:	d020      	beq.n	80010aa <HAL_RCC_ClockConfig+0x96>
  {
    /* Set the highest APBx dividers in order to ensure that we do not go through
       a non-spec phase whatever we decrease or increase HCLK. */
    if (((RCC_ClkInitStruct->ClockType) & RCC_CLOCKTYPE_PCLK1) == RCC_CLOCKTYPE_PCLK1)
 8001068:	687b      	ldr	r3, [r7, #4]
 800106a:	681b      	ldr	r3, [r3, #0]
 800106c:	f003 0304 	and.w	r3, r3, #4
 8001070:	2b00      	cmp	r3, #0
 8001072:	d005      	beq.n	8001080 <HAL_RCC_ClockConfig+0x6c>
    {
      MODIFY_REG(RCC->CFGR, RCC_CFGR_PPRE1, RCC_HCLK_DIV16);
 8001074:	4b59      	ldr	r3, [pc, #356]	; (80011dc <HAL_RCC_ClockConfig+0x1c8>)
 8001076:	689b      	ldr	r3, [r3, #8]
 8001078:	4a58      	ldr	r2, [pc, #352]	; (80011dc <HAL_RCC_ClockConfig+0x1c8>)
 800107a:	f443 53e0 	orr.w	r3, r3, #7168	; 0x1c00
 800107e:	6093      	str	r3, [r2, #8]
    }

    if (((RCC_ClkInitStruct->ClockType) & RCC_CLOCKTYPE_PCLK2) == RCC_CLOCKTYPE_PCLK2)
 8001080:	687b      	ldr	r3, [r7, #4]
 8001082:	681b      	ldr	r3, [r3, #0]
 8001084:	f003 0308 	and.w	r3, r3, #8
 8001088:	2b00      	cmp	r3, #0
 800108a:	d005      	beq.n	8001098 <HAL_RCC_ClockConfig+0x84>
    {
      MODIFY_REG(RCC->CFGR, RCC_CFGR_PPRE2, (RCC_HCLK_DIV16 << 3));
 800108c:	4b53      	ldr	r3, [pc, #332]	; (80011dc <HAL_RCC_ClockConfig+0x1c8>)
 800108e:	689b      	ldr	r3, [r3, #8]
 8001090:	4a52      	ldr	r2, [pc, #328]	; (80011dc <HAL_RCC_ClockConfig+0x1c8>)
 8001092:	f443 4360 	orr.w	r3, r3, #57344	; 0xe000
 8001096:	6093      	str	r3, [r2, #8]
    }

    /* Set the new HCLK clock divider */
    assert_param(IS_RCC_HCLK(RCC_ClkInitStruct->AHBCLKDivider));
    MODIFY_REG(RCC->CFGR, RCC_CFGR_HPRE, RCC_ClkInitStruct->AHBCLKDivider);
 8001098:	4b50      	ldr	r3, [pc, #320]	; (80011dc <HAL_RCC_ClockConfig+0x1c8>)
 800109a:	689b      	ldr	r3, [r3, #8]
 800109c:	f023 02f0 	bic.w	r2, r3, #240	; 0xf0
 80010a0:	687b      	ldr	r3, [r7, #4]
 80010a2:	689b      	ldr	r3, [r3, #8]
 80010a4:	494d      	ldr	r1, [pc, #308]	; (80011dc <HAL_RCC_ClockConfig+0x1c8>)
 80010a6:	4313      	orrs	r3, r2
 80010a8:	608b      	str	r3, [r1, #8]
  }

  /*------------------------- SYSCLK Configuration ---------------------------*/
  if (((RCC_ClkInitStruct->ClockType) & RCC_CLOCKTYPE_SYSCLK) == RCC_CLOCKTYPE_SYSCLK)
 80010aa:	687b      	ldr	r3, [r7, #4]
 80010ac:	681b      	ldr	r3, [r3, #0]
 80010ae:	f003 0301 	and.w	r3, r3, #1
 80010b2:	2b00      	cmp	r3, #0
 80010b4:	d040      	beq.n	8001138 <HAL_RCC_ClockConfig+0x124>
  {
    assert_param(IS_RCC_SYSCLKSOURCE(RCC_ClkInitStruct->SYSCLKSource));

    /* HSE is selected as System Clock Source */
    if (RCC_ClkInitStruct->SYSCLKSource == RCC_SYSCLKSOURCE_HSE)
 80010b6:	687b      	ldr	r3, [r7, #4]
 80010b8:	685b      	ldr	r3, [r3, #4]
 80010ba:	2b01      	cmp	r3, #1
 80010bc:	d107      	bne.n	80010ce <HAL_RCC_ClockConfig+0xba>
    {
      /* Check the HSE ready flag */
      if (__HAL_RCC_GET_FLAG(RCC_FLAG_HSERDY) == RESET)
 80010be:	4b47      	ldr	r3, [pc, #284]	; (80011dc <HAL_RCC_ClockConfig+0x1c8>)
 80010c0:	681b      	ldr	r3, [r3, #0]
 80010c2:	f403 3300 	and.w	r3, r3, #131072	; 0x20000
 80010c6:	2b00      	cmp	r3, #0
 80010c8:	d115      	bne.n	80010f6 <HAL_RCC_ClockConfig+0xe2>
      {
        return HAL_ERROR;
 80010ca:	2301      	movs	r3, #1
 80010cc:	e07f      	b.n	80011ce <HAL_RCC_ClockConfig+0x1ba>
      }
    }
    /* PLL is selected as System Clock Source */
    else if (RCC_ClkInitStruct->SYSCLKSource == RCC_SYSCLKSOURCE_PLLCLK)
 80010ce:	687b      	ldr	r3, [r7, #4]
 80010d0:	685b      	ldr	r3, [r3, #4]
 80010d2:	2b02      	cmp	r3, #2
 80010d4:	d107      	bne.n	80010e6 <HAL_RCC_ClockConfig+0xd2>
    {
      /* Check the PLL ready flag */
      if (__HAL_RCC_GET_FLAG(RCC_FLAG_PLLRDY) == RESET)
 80010d6:	4b41      	ldr	r3, [pc, #260]	; (80011dc <HAL_RCC_ClockConfig+0x1c8>)
 80010d8:	681b      	ldr	r3, [r3, #0]
 80010da:	f003 7300 	and.w	r3, r3, #33554432	; 0x2000000
 80010de:	2b00      	cmp	r3, #0
 80010e0:	d109      	bne.n	80010f6 <HAL_RCC_ClockConfig+0xe2>
      {
        return HAL_ERROR;
 80010e2:	2301      	movs	r3, #1
 80010e4:	e073      	b.n	80011ce <HAL_RCC_ClockConfig+0x1ba>
    }
    /* HSI is selected as System Clock Source */
    else
    {
      /* Check the HSI ready flag */
      if (__HAL_RCC_GET_FLAG(RCC_FLAG_HSIRDY) == RESET)
 80010e6:	4b3d      	ldr	r3, [pc, #244]	; (80011dc <HAL_RCC_ClockConfig+0x1c8>)
 80010e8:	681b      	ldr	r3, [r3, #0]
 80010ea:	f003 0302 	and.w	r3, r3, #2
 80010ee:	2b00      	cmp	r3, #0
 80010f0:	d101      	bne.n	80010f6 <HAL_RCC_ClockConfig+0xe2>
      {
        return HAL_ERROR;
 80010f2:	2301      	movs	r3, #1
 80010f4:	e06b      	b.n	80011ce <HAL_RCC_ClockConfig+0x1ba>
      }
    }

    __HAL_RCC_SYSCLK_CONFIG(RCC_ClkInitStruct->SYSCLKSource);
 80010f6:	4b39      	ldr	r3, [pc, #228]	; (80011dc <HAL_RCC_ClockConfig+0x1c8>)
 80010f8:	689b      	ldr	r3, [r3, #8]
 80010fa:	f023 0203 	bic.w	r2, r3, #3
 80010fe:	687b      	ldr	r3, [r7, #4]
 8001100:	685b      	ldr	r3, [r3, #4]
 8001102:	4936      	ldr	r1, [pc, #216]	; (80011dc <HAL_RCC_ClockConfig+0x1c8>)
 8001104:	4313      	orrs	r3, r2
 8001106:	608b      	str	r3, [r1, #8]

    /* Get Start Tick*/
    tickstart = HAL_GetTick();
 8001108:	f7ff fb94 	bl	8000834 <HAL_GetTick>
 800110c:	60f8      	str	r0, [r7, #12]

    while (__HAL_RCC_GET_SYSCLK_SOURCE() != (RCC_ClkInitStruct->SYSCLKSource << RCC_CFGR_SWS_Pos))
 800110e:	e00a      	b.n	8001126 <HAL_RCC_ClockConfig+0x112>
    {
      if ((HAL_GetTick() - tickstart) > CLOCKSWITCH_TIMEOUT_VALUE)
 8001110:	f7ff fb90 	bl	8000834 <HAL_GetTick>
 8001114:	4602      	mov	r2, r0
 8001116:	68fb      	ldr	r3, [r7, #12]
 8001118:	1ad3      	subs	r3, r2, r3
 800111a:	f241 3288 	movw	r2, #5000	; 0x1388
 800111e:	4293      	cmp	r3, r2
 8001120:	d901      	bls.n	8001126 <HAL_RCC_ClockConfig+0x112>
      {
        return HAL_TIMEOUT;
 8001122:	2303      	movs	r3, #3
 8001124:	e053      	b.n	80011ce <HAL_RCC_ClockConfig+0x1ba>
    while (__HAL_RCC_GET_SYSCLK_SOURCE() != (RCC_ClkInitStruct->SYSCLKSource << RCC_CFGR_SWS_Pos))
 8001126:	4b2d      	ldr	r3, [pc, #180]	; (80011dc <HAL_RCC_ClockConfig+0x1c8>)
 8001128:	689b      	ldr	r3, [r3, #8]
 800112a:	f003 020c 	and.w	r2, r3, #12
 800112e:	687b      	ldr	r3, [r7, #4]
 8001130:	685b      	ldr	r3, [r3, #4]
 8001132:	009b      	lsls	r3, r3, #2
 8001134:	429a      	cmp	r2, r3
 8001136:	d1eb      	bne.n	8001110 <HAL_RCC_ClockConfig+0xfc>
      }
    }
  }

  /* Decreasing the number of wait states because of lower CPU frequency */
  if (FLatency < __HAL_FLASH_GET_LATENCY())
 8001138:	4b27      	ldr	r3, [pc, #156]	; (80011d8 <HAL_RCC_ClockConfig+0x1c4>)
 800113a:	681b      	ldr	r3, [r3, #0]
 800113c:	f003 030f 	and.w	r3, r3, #15
 8001140:	683a      	ldr	r2, [r7, #0]
 8001142:	429a      	cmp	r2, r3
 8001144:	d210      	bcs.n	8001168 <HAL_RCC_ClockConfig+0x154>
  {
    /* Program the new number of wait states to the LATENCY bits in the FLASH_ACR register */
    __HAL_FLASH_SET_LATENCY(FLatency);
 8001146:	4b24      	ldr	r3, [pc, #144]	; (80011d8 <HAL_RCC_ClockConfig+0x1c4>)
 8001148:	681b      	ldr	r3, [r3, #0]
 800114a:	f023 020f 	bic.w	r2, r3, #15
 800114e:	4922      	ldr	r1, [pc, #136]	; (80011d8 <HAL_RCC_ClockConfig+0x1c4>)
 8001150:	683b      	ldr	r3, [r7, #0]
 8001152:	4313      	orrs	r3, r2
 8001154:	600b      	str	r3, [r1, #0]

    /* Check that the new number of wait states is taken into account to access the Flash
    memory by reading the FLASH_ACR register */
    if (__HAL_FLASH_GET_LATENCY() != FLatency)
 8001156:	4b20      	ldr	r3, [pc, #128]	; (80011d8 <HAL_RCC_ClockConfig+0x1c4>)
 8001158:	681b      	ldr	r3, [r3, #0]
 800115a:	f003 030f 	and.w	r3, r3, #15
 800115e:	683a      	ldr	r2, [r7, #0]
 8001160:	429a      	cmp	r2, r3
 8001162:	d001      	beq.n	8001168 <HAL_RCC_ClockConfig+0x154>
    {
      return HAL_ERROR;
 8001164:	2301      	movs	r3, #1
 8001166:	e032      	b.n	80011ce <HAL_RCC_ClockConfig+0x1ba>
    }
  }

  /*-------------------------- PCLK1 Configuration ---------------------------*/
  if (((RCC_ClkInitStruct->ClockType) & RCC_CLOCKTYPE_PCLK1) == RCC_CLOCKTYPE_PCLK1)
 8001168:	687b      	ldr	r3, [r7, #4]
 800116a:	681b      	ldr	r3, [r3, #0]
 800116c:	f003 0304 	and.w	r3, r3, #4
 8001170:	2b00      	cmp	r3, #0
 8001172:	d008      	beq.n	8001186 <HAL_RCC_ClockConfig+0x172>
  {
    assert_param(IS_RCC_PCLK(RCC_ClkInitStruct->APB1CLKDivider));
    MODIFY_REG(RCC->CFGR, RCC_CFGR_PPRE1, RCC_ClkInitStruct->APB1CLKDivider);
 8001174:	4b19      	ldr	r3, [pc, #100]	; (80011dc <HAL_RCC_ClockConfig+0x1c8>)
 8001176:	689b      	ldr	r3, [r3, #8]
 8001178:	f423 52e0 	bic.w	r2, r3, #7168	; 0x1c00
 800117c:	687b      	ldr	r3, [r7, #4]
 800117e:	68db      	ldr	r3, [r3, #12]
 8001180:	4916      	ldr	r1, [pc, #88]	; (80011dc <HAL_RCC_ClockConfig+0x1c8>)
 8001182:	4313      	orrs	r3, r2
 8001184:	608b      	str	r3, [r1, #8]
  }

  /*-------------------------- PCLK2 Configuration ---------------------------*/
  if (((RCC_ClkInitStruct->ClockType) & RCC_CLOCKTYPE_PCLK2) == RCC_CLOCKTYPE_PCLK2)
 8001186:	687b      	ldr	r3, [r7, #4]
 8001188:	681b      	ldr	r3, [r3, #0]
 800118a:	f003 0308 	and.w	r3, r3, #8
 800118e:	2b00      	cmp	r3, #0
 8001190:	d009      	beq.n	80011a6 <HAL_RCC_ClockConfig+0x192>
  {
    assert_param(IS_RCC_PCLK(RCC_ClkInitStruct->APB2CLKDivider));
    MODIFY_REG(RCC->CFGR, RCC_CFGR_PPRE2, ((RCC_ClkInitStruct->APB2CLKDivider) << 3));
 8001192:	4b12      	ldr	r3, [pc, #72]	; (80011dc <HAL_RCC_ClockConfig+0x1c8>)
 8001194:	689b      	ldr	r3, [r3, #8]
 8001196:	f423 4260 	bic.w	r2, r3, #57344	; 0xe000
 800119a:	687b      	ldr	r3, [r7, #4]
 800119c:	691b      	ldr	r3, [r3, #16]
 800119e:	00db      	lsls	r3, r3, #3
 80011a0:	490e      	ldr	r1, [pc, #56]	; (80011dc <HAL_RCC_ClockConfig+0x1c8>)
 80011a2:	4313      	orrs	r3, r2
 80011a4:	608b      	str	r3, [r1, #8]
  }

  /* Update the SystemCoreClock global variable */
  SystemCoreClock = HAL_RCC_GetSysClockFreq() >> AHBPrescTable[(RCC->CFGR & RCC_CFGR_HPRE) >> RCC_CFGR_HPRE_Pos];
 80011a6:	f000 f821 	bl	80011ec <HAL_RCC_GetSysClockFreq>
 80011aa:	4602      	mov	r2, r0
 80011ac:	4b0b      	ldr	r3, [pc, #44]	; (80011dc <HAL_RCC_ClockConfig+0x1c8>)
 80011ae:	689b      	ldr	r3, [r3, #8]
 80011b0:	091b      	lsrs	r3, r3, #4
 80011b2:	f003 030f 	and.w	r3, r3, #15
 80011b6:	490a      	ldr	r1, [pc, #40]	; (80011e0 <HAL_RCC_ClockConfig+0x1cc>)
 80011b8:	5ccb      	ldrb	r3, [r1, r3]
 80011ba:	fa22 f303 	lsr.w	r3, r2, r3
 80011be:	4a09      	ldr	r2, [pc, #36]	; (80011e4 <HAL_RCC_ClockConfig+0x1d0>)
 80011c0:	6013      	str	r3, [r2, #0]

  /* Configure the source of time base considering new system clocks settings*/
  HAL_InitTick(uwTickPrio);
 80011c2:	4b09      	ldr	r3, [pc, #36]	; (80011e8 <HAL_RCC_ClockConfig+0x1d4>)
 80011c4:	681b      	ldr	r3, [r3, #0]
 80011c6:	4618      	mov	r0, r3
 80011c8:	f7ff faf0 	bl	80007ac <HAL_InitTick>

  return HAL_OK;
 80011cc:	2300      	movs	r3, #0
}
 80011ce:	4618      	mov	r0, r3
 80011d0:	3710      	adds	r7, #16
 80011d2:	46bd      	mov	sp, r7
 80011d4:	bd80      	pop	{r7, pc}
 80011d6:	bf00      	nop
 80011d8:	40023c00 	.word	0x40023c00
 80011dc:	40023800 	.word	0x40023800
 80011e0:	080013e8 	.word	0x080013e8
 80011e4:	20000000 	.word	0x20000000
 80011e8:	20000004 	.word	0x20000004

080011ec <HAL_RCC_GetSysClockFreq>:
  *
  *
  * @retval SYSCLK frequency
  */
uint32_t HAL_RCC_GetSysClockFreq(void)
{
 80011ec:	e92d 4fb0 	stmdb	sp!, {r4, r5, r7, r8, r9, sl, fp, lr}
 80011f0:	b090      	sub	sp, #64	; 0x40
 80011f2:	af00      	add	r7, sp, #0
  uint32_t pllm = 0, pllvco = 0, pllp = 0;
 80011f4:	2300      	movs	r3, #0
 80011f6:	637b      	str	r3, [r7, #52]	; 0x34
 80011f8:	2300      	movs	r3, #0
 80011fa:	63fb      	str	r3, [r7, #60]	; 0x3c
 80011fc:	2300      	movs	r3, #0
 80011fe:	633b      	str	r3, [r7, #48]	; 0x30
  uint32_t sysclockfreq = 0;
 8001200:	2300      	movs	r3, #0
 8001202:	63bb      	str	r3, [r7, #56]	; 0x38

  /* Get SYSCLK source -------------------------------------------------------*/
  switch (RCC->CFGR & RCC_CFGR_SWS)
 8001204:	4b59      	ldr	r3, [pc, #356]	; (800136c <HAL_RCC_GetSysClockFreq+0x180>)
 8001206:	689b      	ldr	r3, [r3, #8]
 8001208:	f003 030c 	and.w	r3, r3, #12
 800120c:	2b08      	cmp	r3, #8
 800120e:	d00d      	beq.n	800122c <HAL_RCC_GetSysClockFreq+0x40>
 8001210:	2b08      	cmp	r3, #8
 8001212:	f200 80a1 	bhi.w	8001358 <HAL_RCC_GetSysClockFreq+0x16c>
 8001216:	2b00      	cmp	r3, #0
 8001218:	d002      	beq.n	8001220 <HAL_RCC_GetSysClockFreq+0x34>
 800121a:	2b04      	cmp	r3, #4
 800121c:	d003      	beq.n	8001226 <HAL_RCC_GetSysClockFreq+0x3a>
 800121e:	e09b      	b.n	8001358 <HAL_RCC_GetSysClockFreq+0x16c>
  {
    case RCC_SYSCLKSOURCE_STATUS_HSI:  /* HSI used as system clock source */
    {
      sysclockfreq = HSI_VALUE;
 8001220:	4b53      	ldr	r3, [pc, #332]	; (8001370 <HAL_RCC_GetSysClockFreq+0x184>)
 8001222:	63bb      	str	r3, [r7, #56]	; 0x38
      break;
 8001224:	e09b      	b.n	800135e <HAL_RCC_GetSysClockFreq+0x172>
    }
    case RCC_SYSCLKSOURCE_STATUS_HSE:  /* HSE used as system clock  source */
    {
      sysclockfreq = HSE_VALUE;
 8001226:	4b53      	ldr	r3, [pc, #332]	; (8001374 <HAL_RCC_GetSysClockFreq+0x188>)
 8001228:	63bb      	str	r3, [r7, #56]	; 0x38
      break;
 800122a:	e098      	b.n	800135e <HAL_RCC_GetSysClockFreq+0x172>
    }
    case RCC_SYSCLKSOURCE_STATUS_PLLCLK:  /* PLL used as system clock  source */
    {
      /* PLL_VCO = (HSE_VALUE or HSI_VALUE / PLLM) * PLLN
      SYSCLK = PLL_VCO / PLLP */
      pllm = RCC->PLLCFGR & RCC_PLLCFGR_PLLM;
 800122c:	4b4f      	ldr	r3, [pc, #316]	; (800136c <HAL_RCC_GetSysClockFreq+0x180>)
 800122e:	685b      	ldr	r3, [r3, #4]
 8001230:	f003 033f 	and.w	r3, r3, #63	; 0x3f
 8001234:	637b      	str	r3, [r7, #52]	; 0x34
      if (__HAL_RCC_GET_PLL_OSCSOURCE() != RCC_PLLCFGR_PLLSRC_HSI)
 8001236:	4b4d      	ldr	r3, [pc, #308]	; (800136c <HAL_RCC_GetSysClockFreq+0x180>)
 8001238:	685b      	ldr	r3, [r3, #4]
 800123a:	f403 0380 	and.w	r3, r3, #4194304	; 0x400000
 800123e:	2b00      	cmp	r3, #0
 8001240:	d028      	beq.n	8001294 <HAL_RCC_GetSysClockFreq+0xa8>
      {
        /* HSE used as PLL clock source */
        pllvco = (uint32_t)((((uint64_t) HSE_VALUE * ((uint64_t)((RCC->PLLCFGR & RCC_PLLCFGR_PLLN) >> RCC_PLLCFGR_PLLN_Pos)))) / (uint64_t)pllm);
 8001242:	4b4a      	ldr	r3, [pc, #296]	; (800136c <HAL_RCC_GetSysClockFreq+0x180>)
 8001244:	685b      	ldr	r3, [r3, #4]
 8001246:	099b      	lsrs	r3, r3, #6
 8001248:	2200      	movs	r2, #0
 800124a:	623b      	str	r3, [r7, #32]
 800124c:	627a      	str	r2, [r7, #36]	; 0x24
 800124e:	6a3b      	ldr	r3, [r7, #32]
 8001250:	f3c3 0008 	ubfx	r0, r3, #0, #9
 8001254:	2100      	movs	r1, #0
 8001256:	4b47      	ldr	r3, [pc, #284]	; (8001374 <HAL_RCC_GetSysClockFreq+0x188>)
 8001258:	fb03 f201 	mul.w	r2, r3, r1
 800125c:	2300      	movs	r3, #0
 800125e:	fb00 f303 	mul.w	r3, r0, r3
 8001262:	4413      	add	r3, r2
 8001264:	4a43      	ldr	r2, [pc, #268]	; (8001374 <HAL_RCC_GetSysClockFreq+0x188>)
 8001266:	fba0 1202 	umull	r1, r2, r0, r2
 800126a:	62fa      	str	r2, [r7, #44]	; 0x2c
 800126c:	460a      	mov	r2, r1
 800126e:	62ba      	str	r2, [r7, #40]	; 0x28
 8001270:	6afa      	ldr	r2, [r7, #44]	; 0x2c
 8001272:	4413      	add	r3, r2
 8001274:	62fb      	str	r3, [r7, #44]	; 0x2c
 8001276:	6b7b      	ldr	r3, [r7, #52]	; 0x34
 8001278:	2200      	movs	r2, #0
 800127a:	61bb      	str	r3, [r7, #24]
 800127c:	61fa      	str	r2, [r7, #28]
 800127e:	e9d7 2306 	ldrd	r2, r3, [r7, #24]
 8001282:	e9d7 010a 	ldrd	r0, r1, [r7, #40]	; 0x28
 8001286:	f7fe ffd7 	bl	8000238 <__aeabi_uldivmod>
 800128a:	4602      	mov	r2, r0
 800128c:	460b      	mov	r3, r1
 800128e:	4613      	mov	r3, r2
 8001290:	63fb      	str	r3, [r7, #60]	; 0x3c
 8001292:	e053      	b.n	800133c <HAL_RCC_GetSysClockFreq+0x150>
      }
      else
      {
        /* HSI used as PLL clock source */
        pllvco = (uint32_t)((((uint64_t) HSI_VALUE * ((uint64_t)((RCC->PLLCFGR & RCC_PLLCFGR_PLLN) >> RCC_PLLCFGR_PLLN_Pos)))) / (uint64_t)pllm);
 8001294:	4b35      	ldr	r3, [pc, #212]	; (800136c <HAL_RCC_GetSysClockFreq+0x180>)
 8001296:	685b      	ldr	r3, [r3, #4]
 8001298:	099b      	lsrs	r3, r3, #6
 800129a:	2200      	movs	r2, #0
 800129c:	613b      	str	r3, [r7, #16]
 800129e:	617a      	str	r2, [r7, #20]
 80012a0:	693b      	ldr	r3, [r7, #16]
 80012a2:	f3c3 0a08 	ubfx	sl, r3, #0, #9
 80012a6:	f04f 0b00 	mov.w	fp, #0
 80012aa:	4652      	mov	r2, sl
 80012ac:	465b      	mov	r3, fp
 80012ae:	f04f 0000 	mov.w	r0, #0
 80012b2:	f04f 0100 	mov.w	r1, #0
 80012b6:	0159      	lsls	r1, r3, #5
 80012b8:	ea41 61d2 	orr.w	r1, r1, r2, lsr #27
 80012bc:	0150      	lsls	r0, r2, #5
 80012be:	4602      	mov	r2, r0
 80012c0:	460b      	mov	r3, r1
 80012c2:	ebb2 080a 	subs.w	r8, r2, sl
 80012c6:	eb63 090b 	sbc.w	r9, r3, fp
 80012ca:	f04f 0200 	mov.w	r2, #0
 80012ce:	f04f 0300 	mov.w	r3, #0
 80012d2:	ea4f 1389 	mov.w	r3, r9, lsl #6
 80012d6:	ea43 6398 	orr.w	r3, r3, r8, lsr #26
 80012da:	ea4f 1288 	mov.w	r2, r8, lsl #6
 80012de:	ebb2 0408 	subs.w	r4, r2, r8
 80012e2:	eb63 0509 	sbc.w	r5, r3, r9
 80012e6:	f04f 0200 	mov.w	r2, #0
 80012ea:	f04f 0300 	mov.w	r3, #0
 80012ee:	00eb      	lsls	r3, r5, #3
 80012f0:	ea43 7354 	orr.w	r3, r3, r4, lsr #29
 80012f4:	00e2      	lsls	r2, r4, #3
 80012f6:	4614      	mov	r4, r2
 80012f8:	461d      	mov	r5, r3
 80012fa:	eb14 030a 	adds.w	r3, r4, sl
 80012fe:	603b      	str	r3, [r7, #0]
 8001300:	eb45 030b 	adc.w	r3, r5, fp
 8001304:	607b      	str	r3, [r7, #4]
 8001306:	f04f 0200 	mov.w	r2, #0
 800130a:	f04f 0300 	mov.w	r3, #0
 800130e:	e9d7 4500 	ldrd	r4, r5, [r7]
 8001312:	4629      	mov	r1, r5
 8001314:	028b      	lsls	r3, r1, #10
 8001316:	4621      	mov	r1, r4
 8001318:	ea43 5391 	orr.w	r3, r3, r1, lsr #22
 800131c:	4621      	mov	r1, r4
 800131e:	028a      	lsls	r2, r1, #10
 8001320:	4610      	mov	r0, r2
 8001322:	4619      	mov	r1, r3
 8001324:	6b7b      	ldr	r3, [r7, #52]	; 0x34
 8001326:	2200      	movs	r2, #0
 8001328:	60bb      	str	r3, [r7, #8]
 800132a:	60fa      	str	r2, [r7, #12]
 800132c:	e9d7 2302 	ldrd	r2, r3, [r7, #8]
 8001330:	f7fe ff82 	bl	8000238 <__aeabi_uldivmod>
 8001334:	4602      	mov	r2, r0
 8001336:	460b      	mov	r3, r1
 8001338:	4613      	mov	r3, r2
 800133a:	63fb      	str	r3, [r7, #60]	; 0x3c
      }
      pllp = ((((RCC->PLLCFGR & RCC_PLLCFGR_PLLP) >> RCC_PLLCFGR_PLLP_Pos) + 1) * 2);
 800133c:	4b0b      	ldr	r3, [pc, #44]	; (800136c <HAL_RCC_GetSysClockFreq+0x180>)
 800133e:	685b      	ldr	r3, [r3, #4]
 8001340:	0c1b      	lsrs	r3, r3, #16
 8001342:	f003 0303 	and.w	r3, r3, #3
 8001346:	3301      	adds	r3, #1
 8001348:	005b      	lsls	r3, r3, #1
 800134a:	633b      	str	r3, [r7, #48]	; 0x30

      sysclockfreq = pllvco / pllp;
 800134c:	6bfa      	ldr	r2, [r7, #60]	; 0x3c
 800134e:	6b3b      	ldr	r3, [r7, #48]	; 0x30
 8001350:	fbb2 f3f3 	udiv	r3, r2, r3
 8001354:	63bb      	str	r3, [r7, #56]	; 0x38
      break;
 8001356:	e002      	b.n	800135e <HAL_RCC_GetSysClockFreq+0x172>
    }
    default:
    {
      sysclockfreq = HSI_VALUE;
 8001358:	4b05      	ldr	r3, [pc, #20]	; (8001370 <HAL_RCC_GetSysClockFreq+0x184>)
 800135a:	63bb      	str	r3, [r7, #56]	; 0x38
      break;
 800135c:	bf00      	nop
    }
  }
  return sysclockfreq;
 800135e:	6bbb      	ldr	r3, [r7, #56]	; 0x38
}
 8001360:	4618      	mov	r0, r3
 8001362:	3740      	adds	r7, #64	; 0x40
 8001364:	46bd      	mov	sp, r7
 8001366:	e8bd 8fb0 	ldmia.w	sp!, {r4, r5, r7, r8, r9, sl, fp, pc}
 800136a:	bf00      	nop
 800136c:	40023800 	.word	0x40023800
 8001370:	00f42400 	.word	0x00f42400
 8001374:	017d7840 	.word	0x017d7840

08001378 <__libc_init_array>:
 8001378:	b570      	push	{r4, r5, r6, lr}
 800137a:	4d0d      	ldr	r5, [pc, #52]	; (80013b0 <__libc_init_array+0x38>)
 800137c:	4c0d      	ldr	r4, [pc, #52]	; (80013b4 <__libc_init_array+0x3c>)
 800137e:	1b64      	subs	r4, r4, r5
 8001380:	10a4      	asrs	r4, r4, #2
 8001382:	2600      	movs	r6, #0
 8001384:	42a6      	cmp	r6, r4
 8001386:	d109      	bne.n	800139c <__libc_init_array+0x24>
 8001388:	4d0b      	ldr	r5, [pc, #44]	; (80013b8 <__libc_init_array+0x40>)
 800138a:	4c0c      	ldr	r4, [pc, #48]	; (80013bc <__libc_init_array+0x44>)
 800138c:	f000 f820 	bl	80013d0 <_init>
 8001390:	1b64      	subs	r4, r4, r5
 8001392:	10a4      	asrs	r4, r4, #2
 8001394:	2600      	movs	r6, #0
 8001396:	42a6      	cmp	r6, r4
 8001398:	d105      	bne.n	80013a6 <__libc_init_array+0x2e>
 800139a:	bd70      	pop	{r4, r5, r6, pc}
 800139c:	f855 3b04 	ldr.w	r3, [r5], #4
 80013a0:	4798      	blx	r3
 80013a2:	3601      	adds	r6, #1
 80013a4:	e7ee      	b.n	8001384 <__libc_init_array+0xc>
 80013a6:	f855 3b04 	ldr.w	r3, [r5], #4
 80013aa:	4798      	blx	r3
 80013ac:	3601      	adds	r6, #1
 80013ae:	e7f2      	b.n	8001396 <__libc_init_array+0x1e>
 80013b0:	08001400 	.word	0x08001400
 80013b4:	08001400 	.word	0x08001400
 80013b8:	08001400 	.word	0x08001400
 80013bc:	08001404 	.word	0x08001404

080013c0 <memset>:
 80013c0:	4402      	add	r2, r0
 80013c2:	4603      	mov	r3, r0
 80013c4:	4293      	cmp	r3, r2
 80013c6:	d100      	bne.n	80013ca <memset+0xa>
 80013c8:	4770      	bx	lr
 80013ca:	f803 1b01 	strb.w	r1, [r3], #1
 80013ce:	e7f9      	b.n	80013c4 <memset+0x4>

080013d0 <_init>:
 80013d0:	b5f8      	push	{r3, r4, r5, r6, r7, lr}
 80013d2:	bf00      	nop
 80013d4:	bcf8      	pop	{r3, r4, r5, r6, r7}
 80013d6:	bc08      	pop	{r3}
 80013d8:	469e      	mov	lr, r3
 80013da:	4770      	bx	lr

080013dc <_fini>:
 80013dc:	b5f8      	push	{r3, r4, r5, r6, r7, lr}
 80013de:	bf00      	nop
 80013e0:	bcf8      	pop	{r3, r4, r5, r6, r7}
 80013e2:	bc08      	pop	{r3}
 80013e4:	469e      	mov	lr, r3
 80013e6:	4770      	bx	lr
